{
  "_format": "hh-sol-artifact-1",
  "contractName": "TreasuryPool",
  "sourceName": "contracts/TreasuryPool.sol",
  "abi": [
    {
      "inputs": [
        {
          "internalType": "address",
          "name": "_usdcAddress",
          "type": "address"
        },
        {
          "internalType": "address",
          "name": "_flockWallet",
          "type": "address"
        },
        {
          "internalType": "address",
          "name": "_treasuryAdmin",
          "type": "address"
        }
      ],
      "stateMutability": "nonpayable",
      "type": "constructor"
    },
    {
      "inputs": [
        {
          "internalType": "address",
          "name": "owner",
          "type": "address"
        }
      ],
      "name": "OwnableInvalidOwner",
      "type": "error"
    },
    {
      "inputs": [
        {
          "internalType": "address",
          "name": "account",
          "type": "address"
        }
      ],
      "name": "OwnableUnauthorizedAccount",
      "type": "error"
    },
    {
      "inputs": [],
      "name": "ReentrancyGuardReentrantCall",
      "type": "error"
    },
    {
      "anonymous": false,
      "inputs": [
        {
          "indexed": true,
          "internalType": "address",
          "name": "to",
          "type": "address"
        },
        {
          "indexed": false,
          "internalType": "uint256",
          "name": "amount",
          "type": "uint256"
        },
        {
          "indexed": false,
          "internalType": "uint256",
          "name": "timestamp",
          "type": "uint256"
        }
      ],
      "name": "BalanceWithdrawn",
      "type": "event"
    },
    {
      "anonymous": false,
      "inputs": [
        {
          "indexed": false,
          "internalType": "uint256",
          "name": "newCost",
          "type": "uint256"
        }
      ],
      "name": "FlockCostUpdated",
      "type": "event"
    },
    {
      "anonymous": false,
      "inputs": [
        {
          "indexed": true,
          "internalType": "address",
          "name": "user",
          "type": "address"
        },
        {
          "indexed": false,
          "internalType": "uint256",
          "name": "amount",
          "type": "uint256"
        },
        {
          "indexed": false,
          "internalType": "uint256",
          "name": "callCount",
          "type": "uint256"
        },
        {
          "indexed": false,
          "internalType": "uint256",
          "name": "timestamp",
          "type": "uint256"
        }
      ],
      "name": "FlockPaymentMade",
      "type": "event"
    },
    {
      "anonymous": false,
      "inputs": [
        {
          "indexed": true,
          "internalType": "address",
          "name": "newWallet",
          "type": "address"
        }
      ],
      "name": "FlockWalletUpdated",
      "type": "event"
    },
    {
      "anonymous": false,
      "inputs": [
        {
          "indexed": true,
          "internalType": "address",
          "name": "previousOwner",
          "type": "address"
        },
        {
          "indexed": true,
          "internalType": "address",
          "name": "newOwner",
          "type": "address"
        }
      ],
      "name": "OwnershipTransferred",
      "type": "event"
    },
    {
      "anonymous": false,
      "inputs": [
        {
          "indexed": true,
          "internalType": "address",
          "name": "user",
          "type": "address"
        },
        {
          "indexed": false,
          "internalType": "uint256",
          "name": "amount",
          "type": "uint256"
        },
        {
          "indexed": false,
          "internalType": "uint256",
          "name": "timestamp",
          "type": "uint256"
        },
        {
          "indexed": false,
          "internalType": "string",
          "name": "reason",
          "type": "string"
        }
      ],
      "name": "PaymentReceived",
      "type": "event"
    },
    {
      "anonymous": false,
      "inputs": [
        {
          "indexed": true,
          "internalType": "address",
          "name": "user",
          "type": "address"
        },
        {
          "indexed": false,
          "internalType": "uint256",
          "name": "amount",
          "type": "uint256"
        },
        {
          "indexed": false,
          "internalType": "uint256",
          "name": "deadline",
          "type": "uint256"
        },
        {
          "indexed": false,
          "internalType": "uint256",
          "name": "timestamp",
          "type": "uint256"
        }
      ],
      "name": "PermitPayment",
      "type": "event"
    },
    {
      "inputs": [
        {
          "internalType": "address",
          "name": "user",
          "type": "address"
        },
        {
          "internalType": "int256",
          "name": "amount",
          "type": "int256"
        }
      ],
      "name": "adjustBalance",
      "outputs": [],
      "stateMutability": "nonpayable",
      "type": "function"
    },
    {
      "inputs": [
        {
          "internalType": "uint256",
          "name": "callCount",
          "type": "uint256"
        }
      ],
      "name": "calculateCost",
      "outputs": [
        {
          "internalType": "uint256",
          "name": "",
          "type": "uint256"
        }
      ],
      "stateMutability": "view",
      "type": "function"
    },
    {
      "inputs": [
        {
          "internalType": "address",
          "name": "user",
          "type": "address"
        },
        {
          "internalType": "uint256",
          "name": "amount",
          "type": "uint256"
        }
      ],
      "name": "deductBalance",
      "outputs": [
        {
          "internalType": "bool",
          "name": "",
          "type": "bool"
        }
      ],
      "stateMutability": "nonpayable",
      "type": "function"
    },
    {
      "inputs": [
        {
          "internalType": "address",
          "name": "user",
          "type": "address"
        },
        {
          "internalType": "uint256",
          "name": "callCount",
          "type": "uint256"
        }
      ],
      "name": "deductFlockCost",
      "outputs": [
        {
          "internalType": "bool",
          "name": "success",
          "type": "bool"
        }
      ],
      "stateMutability": "nonpayable",
      "type": "function"
    },
    {
      "inputs": [],
      "name": "emergencyWithdraw",
      "outputs": [],
      "stateMutability": "nonpayable",
      "type": "function"
    },
    {
      "inputs": [],
      "name": "flockCostPerCall",
      "outputs": [
        {
          "internalType": "uint256",
          "name": "",
          "type": "uint256"
        }
      ],
      "stateMutability": "view",
      "type": "function"
    },
    {
      "inputs": [],
      "name": "flockWallet",
      "outputs": [
        {
          "internalType": "address",
          "name": "",
          "type": "address"
        }
      ],
      "stateMutability": "view",
      "type": "function"
    },
    {
      "inputs": [
        {
          "internalType": "address",
          "name": "user",
          "type": "address"
        }
      ],
      "name": "getBalance",
      "outputs": [
        {
          "internalType": "uint256",
          "name": "",
          "type": "uint256"
        }
      ],
      "stateMutability": "view",
      "type": "function"
    },
    {
      "inputs": [
        {
          "internalType": "address",
          "name": "user",
          "type": "address"
        }
      ],
      "name": "getCallCount",
      "outputs": [
        {
          "internalType": "uint256",
          "name": "",
          "type": "uint256"
        }
      ],
      "stateMutability": "view",
      "type": "function"
    },
    {
      "inputs": [],
      "name": "getTotalFlockPayments",
      "outputs": [
        {
          "internalType": "uint256",
          "name": "",
          "type": "uint256"
        }
      ],
      "stateMutability": "view",
      "type": "function"
    },
    {
      "inputs": [
        {
          "internalType": "address",
          "name": "user",
          "type": "address"
        }
      ],
      "name": "getTotalPaid",
      "outputs": [
        {
          "internalType": "uint256",
          "name": "",
          "type": "uint256"
        }
      ],
      "stateMutability": "view",
      "type": "function"
    },
    {
      "inputs": [],
      "name": "getTreasuryBalance",
      "outputs": [
        {
          "internalType": "uint256",
          "name": "",
          "type": "uint256"
        }
      ],
      "stateMutability": "view",
      "type": "function"
    },
    {
      "inputs": [],
      "name": "owner",
      "outputs": [
        {
          "internalType": "address",
          "name": "",
          "type": "address"
        }
      ],
      "stateMutability": "view",
      "type": "function"
    },
    {
      "inputs": [
        {
          "internalType": "address",
          "name": "user",
          "type": "address"
        },
        {
          "internalType": "uint256",
          "name": "amount",
          "type": "uint256"
        }
      ],
      "name": "receivePayment",
      "outputs": [],
      "stateMutability": "nonpayable",
      "type": "function"
    },
    {
      "inputs": [
        {
          "internalType": "address",
          "name": "user",
          "type": "address"
        },
        {
          "internalType": "uint256",
          "name": "amount",
          "type": "uint256"
        },
        {
          "internalType": "uint256",
          "name": "deadline",
          "type": "uint256"
        },
        {
          "internalType": "uint8",
          "name": "v",
          "type": "uint8"
        },
        {
          "internalType": "bytes32",
          "name": "r",
          "type": "bytes32"
        },
        {
          "internalType": "bytes32",
          "name": "s",
          "type": "bytes32"
        }
      ],
      "name": "receivePaymentWithPermit",
      "outputs": [],
      "stateMutability": "nonpayable",
      "type": "function"
    },
    {
      "inputs": [],
      "name": "renounceOwnership",
      "outputs": [],
      "stateMutability": "nonpayable",
      "type": "function"
    },
    {
      "inputs": [
        {
          "internalType": "uint256",
          "name": "newCost",
          "type": "uint256"
        }
      ],
      "name": "setFlockCost",
      "outputs": [],
      "stateMutability": "nonpayable",
      "type": "function"
    },
    {
      "inputs": [
        {
          "internalType": "address",
          "name": "newWallet",
          "type": "address"
        }
      ],
      "name": "setFlockWallet",
      "outputs": [],
      "stateMutability": "nonpayable",
      "type": "function"
    },
    {
      "inputs": [
        {
          "internalType": "address",
          "name": "newAdmin",
          "type": "address"
        }
      ],
      "name": "setTreasuryAdmin",
      "outputs": [],
      "stateMutability": "nonpayable",
      "type": "function"
    },
    {
      "inputs": [],
      "name": "totalFlockPayments",
      "outputs": [
        {
          "internalType": "uint256",
          "name": "",
          "type": "uint256"
        }
      ],
      "stateMutability": "view",
      "type": "function"
    },
    {
      "inputs": [],
      "name": "totalTreasuryBalance",
      "outputs": [
        {
          "internalType": "uint256",
          "name": "",
          "type": "uint256"
        }
      ],
      "stateMutability": "view",
      "type": "function"
    },
    {
      "inputs": [
        {
          "internalType": "address",
          "name": "newOwner",
          "type": "address"
        }
      ],
      "name": "transferOwnership",
      "outputs": [],
      "stateMutability": "nonpayable",
      "type": "function"
    },
    {
      "inputs": [],
      "name": "treasuryAdmin",
      "outputs": [
        {
          "internalType": "address",
          "name": "",
          "type": "address"
        }
      ],
      "stateMutability": "view",
      "type": "function"
    },
    {
      "inputs": [],
      "name": "usdc",
      "outputs": [
        {
          "internalType": "contract IERC20",
          "name": "",
          "type": "address"
        }
      ],
      "stateMutability": "view",
      "type": "function"
    },
    {
      "inputs": [
        {
          "internalType": "address",
          "name": "",
          "type": "address"
        }
      ],
      "name": "userBalances",
      "outputs": [
        {
          "internalType": "uint256",
          "name": "",
          "type": "uint256"
        }
      ],
      "stateMutability": "view",
      "type": "function"
    },
    {
      "inputs": [
        {
          "internalType": "address",
          "name": "",
          "type": "address"
        }
      ],
      "name": "userCallCount",
      "outputs": [
        {
          "internalType": "uint256",
          "name": "",
          "type": "uint256"
        }
      ],
      "stateMutability": "view",
      "type": "function"
    },
    {
      "inputs": [
        {
          "internalType": "address",
          "name": "",
          "type": "address"
        }
      ],
      "name": "userTotalPaid",
      "outputs": [
        {
          "internalType": "uint256",
          "name": "",
          "type": "uint256"
        }
      ],
      "stateMutability": "view",
      "type": "function"
    },
    {
      "inputs": [
        {
          "internalType": "uint256",
          "name": "amount",
          "type": "uint256"
        }
      ],
      "name": "withdrawUSDC",
      "outputs": [],
      "stateMutability": "nonpayable",
      "type": "function"
    },
    {
      "stateMutability": "payable",
      "type": "receive"
    }
  ],
  "bytecode": "0x6080604052620186a06003553480156200001857600080fd5b5060405162001af238038062001af28339810160408190526200003b9162000234565b806001600160a01b0381166200006c57604051631e4fbdf760e01b8152600060048201526024015b60405180910390fd5b6200007781620001c7565b50600180556001600160a01b038316620000d45760405162461bcd60e51b815260206004820152601460248201527f496e76616c696420555344432061646472657373000000000000000000000000604482015260640162000063565b6001600160a01b0382166200012c5760405162461bcd60e51b815260206004820152601460248201527f496e76616c696420466c6f636b2077616c6c6574000000000000000000000000604482015260640162000063565b6001600160a01b038116620001845760405162461bcd60e51b815260206004820152601660248201527f496e76616c69642054726561737572792061646d696e00000000000000000000604482015260640162000063565b600280546001600160a01b039485166001600160a01b0319918216179091556007805493851693821693909317909255600880549190931691161790556200027e565b600080546001600160a01b038381166001600160a01b0319831681178455604051919092169283917f8be0079c531659141344cd1fd0a4f28419497f9722a3daafe3b4186f6b6457e09190a35050565b80516001600160a01b03811681146200022f57600080fd5b919050565b6000806000606084860312156200024a57600080fd5b620002558462000217565b9250620002656020850162000217565b9150620002756040850162000217565b90509250925092565b611864806200028e6000396000f3fe6080604052600436106101bb5760003560e01c8063ac0c62b7116100ec578063db81f99b1161008a578063ec4a59d911610064578063ec4a59d91461056a578063ecbc8fa714610580578063f2fde38b146105a0578063f8b2cb4f146105c057600080fd5b8063db81f99b146104fd578063dbcaf5bb1461051d578063e2fbae481461054a57600080fd5b8063d319f485116100c6578063d319f4851461047c578063d7506dbb14610492578063d881db19146104b2578063db2e21bc146104e857600080fd5b8063ac0c62b714610431578063be6771f614610447578063cfec010c1461045c57600080fd5b8063700f39cf116101595780638da5cb5b116101335780638da5cb5b146103be57806392e69cf9146103dc5780639b5655dc146103fc578063a3e1484a1461041157600080fd5b8063700f39cf1461034c578063715018a61461037c578063794f75ba1461039157600080fd5b80634af18f4f116101955780634af18f4f146102b65780635259b9ab146102d65780636335ee3e146102f657806364c735301461032c57600080fd5b80630f66ef021461021c57806326224c641461023e5780633e413bee1461027e57600080fd5b366102175760405162461bcd60e51b815260206004820152602160248201527f5468697320636f6e747261637420646f6573206e6f74206163636570742045546044820152600960fb1b60648201526084015b60405180910390fd5b600080fd5b34801561022857600080fd5b5061023c61023736600461160e565b6105f6565b005b34801561024a57600080fd5b5061026b61025936600461160e565b60046020526000908152604090205481565b6040519081526020015b60405180910390f35b34801561028a57600080fd5b5060025461029e906001600160a01b031681565b6040516001600160a01b039091168152602001610275565b3480156102c257600080fd5b5061026b6102d1366004611630565b610666565b3480156102e257600080fd5b5061023c6102f1366004611649565b61067c565b34801561030257600080fd5b5061026b61031136600461160e565b6001600160a01b031660009081526006602052604090205490565b34801561033857600080fd5b5060075461029e906001600160a01b031681565b34801561035857600080fd5b5061036c610367366004611649565b61087a565b6040519015158152602001610275565b34801561038857600080fd5b5061023c610acc565b34801561039d57600080fd5b5061026b6103ac36600461160e565b60056020526000908152604090205481565b3480156103ca57600080fd5b506000546001600160a01b031661029e565b3480156103e857600080fd5b5061023c6103f7366004611630565b610ae0565b34801561040857600080fd5b50600a5461026b565b34801561041d57600080fd5b5061023c61042c366004611673565b610b66565b34801561043d57600080fd5b5061026b60035481565b34801561045357600080fd5b5060095461026b565b34801561046857600080fd5b5060085461029e906001600160a01b031681565b34801561048857600080fd5b5061026b60095481565b34801561049e57600080fd5b5061023c6104ad36600461160e565b610e3d565b3480156104be57600080fd5b5061026b6104cd36600461160e565b6001600160a01b031660009081526005602052604090205490565b3480156104f457600080fd5b5061023c610ed6565b34801561050957600080fd5b5061023c610518366004611630565b61109f565b34801561052957600080fd5b5061026b61053836600461160e565b60066020526000908152604090205481565b34801561055657600080fd5b5061036c610565366004611649565b611260565b34801561057657600080fd5b5061026b600a5481565b34801561058c57600080fd5b5061023c61059b366004611649565b611422565b3480156105ac57600080fd5b5061023c6105bb36600461160e565b611510565b3480156105cc57600080fd5b5061026b6105db36600461160e565b6001600160a01b031660009081526004602052604090205490565b6105fe61154b565b6001600160a01b0381166106445760405162461bcd60e51b815260206004820152600d60248201526c24b73b30b634b21030b236b4b760991b604482015260640161020e565b600880546001600160a01b0319166001600160a01b0392909216919091179055565b60008160035461067691906116e9565b92915050565b610684611578565b6001600160a01b0382166106aa5760405162461bcd60e51b815260040161020e90611700565b600081116106ca5760405162461bcd60e51b815260040161020e9061172e565b6001600160a01b038216600090815260046020526040812080548392906106f290849061175a565b90915550506001600160a01b0382166000908152600560205260408120805483929061071f90849061175a565b9250508190555080600a6000828254610738919061175a565b90915550506002546040516323b872dd60e01b81526001600160a01b03848116600483015230602483015260448201849052909116906323b872dd906064016020604051808303816000875af1158015610796573d6000803e3d6000fd5b505050506040513d601f19601f820116820180604052508101906107ba919061176d565b6107fd5760405162461bcd60e51b81526020600482015260146024820152731554d110c81d1c985b9cd9995c8819985a5b195960621b604482015260640161020e565b816001600160a01b03167f237b94339b1dc667f5a951cf2ee33f00228f658a6ab811cc6afa6caaa4b80cfa82426040516108659291909182526020820152606060408201819052600c908201526b1e0d0c0c881c185e5b595b9d60a21b608082015260a00190565b60405180910390a261087660018055565b5050565b600061088461154b565b61088c611578565b6001600160a01b0383166108b25760405162461bcd60e51b815260040161020e90611700565b600082116108fb5760405162461bcd60e51b8152602060048201526016602482015275043616c6c20636f756e74206d757374206265203e20360541b604482015260640161020e565b60008260035461090b91906116e9565b6001600160a01b0385166000908152600460205260409020549091508111156109465760405162461bcd60e51b815260040161020e9061178f565b6001600160a01b0384166000908152600460205260408120805483929061096e9084906117bd565b90915550506001600160a01b0384166000908152600660205260408120805485929061099b90849061175a565b9250508190555080600960008282546109b4919061175a565b909155505060025460075460405163a9059cbb60e01b81526001600160a01b0391821660048201526024810184905291169063a9059cbb906044016020604051808303816000875af1158015610a0e573d6000803e3d6000fd5b505050506040513d601f19601f82011682018060405250810190610a32919061176d565b610a755760405162461bcd60e51b8152602060048201526014602482015273119b1bd8dac81c185e5b595b9d0819985a5b195960621b604482015260640161020e565b6040805182815260208101859052428183015290516001600160a01b038616917fa6875992227aee7a726c2eeab2dd3b14fed5d4dbca0ab659fe3f88d18e83afe8919081900360600190a250506001808055610676565b610ad461154b565b610ade60006115a2565b565b610ae861154b565b60008111610b2b5760405162461bcd60e51b815260206004820152601060248201526f0436f7374206d757374206265203e20360841b604482015260640161020e565b60038190556040518181527f2f56169364380fe772080a81e5c6658d12178e83a22e1d65525d0709d55bd90e9060200160405180910390a150565b610b6e611578565b6001600160a01b038616610b945760405162461bcd60e51b815260040161020e90611700565b60008511610bb45760405162461bcd60e51b815260040161020e9061172e565b60025460405163d505accf60e01b81526001600160a01b038881166004830152306024830152604482018890526064820187905260ff8616608483015260a4820185905260c482018490529091169063d505accf9060e401600060405180830381600087803b158015610c2657600080fd5b505af1158015610c3a573d6000803e3d6000fd5b505050506001600160a01b03861660009081526004602052604081208054879290610c6690849061175a565b90915550506001600160a01b03861660009081526005602052604081208054879290610c9390849061175a565b9250508190555084600a6000828254610cac919061175a565b90915550506002546040516323b872dd60e01b81526001600160a01b03888116600483015230602483015260448201889052909116906323b872dd906064016020604051808303816000875af1158015610d0a573d6000803e3d6000fd5b505050506040513d601f19601f82011682018060405250810190610d2e919061176d565b610d715760405162461bcd60e51b81526020600482015260146024820152731554d110c81d1c985b9cd9995c8819985a5b195960621b604482015260640161020e565b856001600160a01b03167f237b94339b1dc667f5a951cf2ee33f00228f658a6ab811cc6afa6caaa4b80cfa8642604051610dd99291909182526020820152606060408201819052600c908201526b1e0d0c0c881c185e5b595b9d60a21b608082015260a00190565b60405180910390a26040805186815260208101869052428183015290516001600160a01b038816917f2bc562b9d914b9675c534c695e367bf7c77cddea59ef5fea4a541066b930e64c919081900360600190a2610e3560018055565b505050505050565b610e4561154b565b6001600160a01b038116610e8c5760405162461bcd60e51b815260206004820152600e60248201526d125b9d985b1a59081dd85b1b195d60921b604482015260640161020e565b600780546001600160a01b0319166001600160a01b0383169081179091556040517f0ee9c40b3fdb120fcb3bba00c1e05f73606b01b33217f04f89f42e0bcad0980290600090a250565b610ede61154b565b610ee6611578565b6002546040516370a0823160e01b81523060048201526000916001600160a01b0316906370a0823190602401602060405180830381865afa158015610f2f573d6000803e3d6000fd5b505050506040513d601f19601f82011682018060405250810190610f5391906117d0565b905060008111610f9e5760405162461bcd60e51b81526020600482015260166024820152754e6f2062616c616e636520746f20776974686472617760501b604482015260640161020e565b6002546001600160a01b031663a9059cbb610fc16000546001600160a01b031690565b6040516001600160e01b031960e084901b1681526001600160a01b039091166004820152602481018490526044016020604051808303816000875af115801561100e573d6000803e3d6000fd5b505050506040513d601f19601f82011682018060405250810190611032919061176d565b61104e5760405162461bcd60e51b815260040161020e906117e9565b600054604080518381524260208201526001600160a01b03909216917f198c9a3869a23d7c0e404b2f9adb78e7f3c699f6df9bfc4ffa588c64036d217e910160405180910390a250610ade60018055565b6110a761154b565b6110af611578565b600081116110cf5760405162461bcd60e51b815260040161020e9061172e565b6002546040516370a0823160e01b815230600482015282916001600160a01b0316906370a0823190602401602060405180830381865afa158015611117573d6000803e3d6000fd5b505050506040513d601f19601f8201168201806040525081019061113b91906117d0565b10156111895760405162461bcd60e51b815260206004820152601d60248201527f496e73756666696369656e7420636f6e74726163742062616c616e6365000000604482015260640161020e565b60025460405163a9059cbb60e01b8152336004820152602481018390526001600160a01b039091169063a9059cbb906044016020604051808303816000875af11580156111da573d6000803e3d6000fd5b505050506040513d601f19601f820116820180604052508101906111fe919061176d565b61121a5760405162461bcd60e51b815260040161020e906117e9565b6040805182815242602082015233917f198c9a3869a23d7c0e404b2f9adb78e7f3c699f6df9bfc4ffa588c64036d217e910160405180910390a261125d60018055565b50565b600061126a61154b565b611272611578565b6001600160a01b0383166112985760405162461bcd60e51b815260040161020e90611700565b600082116112b85760405162461bcd60e51b815260040161020e9061172e565b6001600160a01b0383166000908152600460205260409020548211156112f05760405162461bcd60e51b815260040161020e9061178f565b6001600160a01b038316600090815260046020526040812080548492906113189084906117bd565b9250508190555081600a600082825461133191906117bd565b909155505060025460075460405163a9059cbb60e01b81526001600160a01b0391821660048201526024810185905291169063a9059cbb906044016020604051808303816000875af115801561138b573d6000803e3d6000fd5b505050506040513d601f19601f820116820180604052508101906113af919061176d565b6113cb5760405162461bcd60e51b815260040161020e906117e9565b6040805183815260006020820152428183015290516001600160a01b038516917fa6875992227aee7a726c2eeab2dd3b14fed5d4dbca0ab659fe3f88d18e83afe8919081900360600190a250600161067660018055565b61142a61154b565b600081131561147f576001600160a01b0382166000908152600460205260408120805483929061145b90849061175a565b9250508190555080600a6000828254611474919061175a565b909155506108769050565b600061148a82611812565b6001600160a01b0384166000908152600460205260409020549091508111156114c55760405162461bcd60e51b815260040161020e9061178f565b6001600160a01b038316600090815260046020526040812080548392906114ed9084906117bd565b9250508190555080600a600082825461150691906117bd565b9091555050505050565b61151861154b565b6001600160a01b03811661154257604051631e4fbdf760e01b81526000600482015260240161020e565b61125d816115a2565b6000546001600160a01b03163314610ade5760405163118cdaa760e01b815233600482015260240161020e565b60026001540361159b57604051633ee5aeb560e01b815260040160405180910390fd5b6002600155565b600080546001600160a01b038381166001600160a01b0319831681178455604051919092169283917f8be0079c531659141344cd1fd0a4f28419497f9722a3daafe3b4186f6b6457e09190a35050565b80356001600160a01b038116811461160957600080fd5b919050565b60006020828403121561162057600080fd5b611629826115f2565b9392505050565b60006020828403121561164257600080fd5b5035919050565b6000806040838503121561165c57600080fd5b611665836115f2565b946020939093013593505050565b60008060008060008060c0878903121561168c57600080fd5b611695876115f2565b95506020870135945060408701359350606087013560ff811681146116b957600080fd5b9598949750929560808101359460a0909101359350915050565b634e487b7160e01b600052601160045260246000fd5b8082028115828204841417610676576106766116d3565b602080825260149082015273496e76616c69642075736572206164647265737360601b604082015260600190565b6020808252601290820152710416d6f756e74206d757374206265203e20360741b604082015260600190565b80820180821115610676576106766116d3565b60006020828403121561177f57600080fd5b8151801515811461162957600080fd5b602080825260149082015273496e73756666696369656e742062616c616e636560601b604082015260600190565b81810381811115610676576106766116d3565b6000602082840312156117e257600080fd5b5051919050565b6020808252600f908201526e151c985b9cd9995c8819985a5b1959608a1b604082015260600190565b6000600160ff1b8201611827576118276116d3565b506000039056fea2646970667358221220355eb76fe1a3253ef0993b67ea4bbedbbd27ebccdf4039aefa9e31cf9f5a9bac64736f6c63430008140033",
  "linkReferences": {},
  "deployedLinkReferences": {}
}