{"contracts/TreasuryPool.sol":{"TreasuryPool":{"abi":[{"inputs":[{"internalType":"address","name":"_usdcAddress","type":"address"},{"internalType":"address","name":"_flockWallet","type":"address"},{"internalType":"address","name":"_treasuryAdmin","type":"address"}],"stateMutability":"nonpayable","type":"constructor"},{"inputs":[{"internalType":"address","name":"owner","type":"address"}],"name":"OwnableInvalidOwner","type":"error"},{"inputs":[{"internalType":"address","name":"account","type":"address"}],"name":"OwnableUnauthorizedAccount","type":"error"},{"inputs":[],"name":"ReentrancyGuardReentrantCall","type":"error"},{"anonymous":false,"inputs":[{"indexed":true,"internalType":"address","name":"to","type":"address"},{"indexed":false,"internalType":"uint256","name":"amount","type":"uint256"},{"indexed":false,"internalType":"uint256","name":"timestamp","type":"uint256"}],"name":"BalanceWithdrawn","type":"event"},{"anonymous":false,"inputs":[{"indexed":false,"internalType":"uint256","name":"newCost","type":"uint256"}],"name":"FlockCostUpdated","type":"event"},{"anonymous":false,"inputs":[{"indexed":true,"internalType":"address","name":"user","type":"address"},{"indexed":false,"internalType":"uint256","name":"amount","type":"uint256"},{"indexed":false,"internalType":"uint256","name":"callCount","type":"uint256"},{"indexed":false,"internalType":"uint256","name":"timestamp","type":"uint256"}],"name":"FlockPaymentMade","type":"event"},{"anonymous":false,"inputs":[{"indexed":true,"internalType":"address","name":"newWallet","type":"address"}],"name":"FlockWalletUpdated","type":"event"},{"anonymous":false,"inputs":[{"indexed":true,"internalType":"address","name":"previousOwner","type":"address"},{"indexed":true,"internalType":"address","name":"newOwner","type":"address"}],"name":"OwnershipTransferred","type":"event"},{"anonymous":false,"inputs":[{"indexed":true,"internalType":"address","name":"user","type":"address"},{"indexed":false,"internalType":"uint256","name":"amount","type":"uint256"},{"indexed":false,"internalType":"uint256","name":"timestamp","type":"uint256"},{"indexed":false,"internalType":"string","name":"reason","type":"string"}],"name":"PaymentReceived","type":"event"},{"anonymous":false,"inputs":[{"indexed":true,"internalType":"address","name":"user","type":"address"},{"indexed":false,"internalType":"uint256","name":"amount","type":"uint256"},{"indexed":false,"internalType":"uint256","name":"deadline","type":"uint256"},{"indexed":false,"internalType":"uint256","name":"timestamp","type":"uint256"}],"name":"PermitPayment","type":"event"},{"inputs":[{"internalType":"address","name":"user","type":"address"},{"internalType":"int256","name":"amount","type":"int256"}],"name":"adjustBalance","outputs":[],"stateMutability":"nonpayable","type":"function"},{"inputs":[{"internalType":"uint256","name":"callCount","type":"uint256"}],"name":"calculateCost","outputs":[{"internalType":"uint256","name":"","type":"uint256"}],"stateMutability":"view","type":"function"},{"inputs":[{"internalType":"address","name":"user","type":"address"},{"internalType":"uint256","name":"amount","type":"uint256"}],"name":"deductBalance","outputs":[{"internalType":"bool","name":"","type":"bool"}],"stateMutability":"nonpayable","type":"function"},{"inputs":[{"internalType":"address","name":"user","type":"address"},{"internalType":"uint256","name":"callCount","type":"uint256"}],"name":"deductFlockCost","outputs":[{"internalType":"bool","name":"success","type":"bool"}],"stateMutability":"nonpayable","type":"function"},{"inputs":[],"name":"emergencyWithdraw","outputs":[],"stateMutability":"nonpayable","type":"function"},{"inputs":[],"name":"flockCostPerCall","outputs":[{"internalType":"uint256","name":"","type":"uint256"}],"stateMutability":"view","type":"function"},{"inputs":[],"name":"flockWallet","outputs":[{"internalType":"address","name":"","type":"address"}],"stateMutability":"view","type":"function"},{"inputs":[{"internalType":"address","name":"user","type":"address"}],"name":"getBalance","outputs":[{"internalType":"uint256","name":"","type":"uint256"}],"stateMutability":"view","type":"function"},{"inputs":[{"internalType":"address","name":"user","type":"address"}],"name":"getCallCount","outputs":[{"internalType":"uint256","name":"","type":"uint256"}],"stateMutability":"view","type":"function"},{"inputs":[],"name":"getTotalFlockPayments","outputs":[{"internalType":"uint256","name":"","type":"uint256"}],"stateMutability":"view","type":"function"},{"inputs":[{"internalType":"address","name":"user","type":"address"}],"name":"getTotalPaid","outputs":[{"internalType":"uint256","name":"","type":"uint256"}],"stateMutability":"view","type":"function"},{"inputs":[],"name":"getTreasuryBalance","outputs":[{"internalType":"uint256","name":"","type":"uint256"}],"stateMutability":"view","type":"function"},{"inputs":[],"name":"owner","outputs":[{"internalType":"address","name":"","type":"address"}],"stateMutability":"view","type":"function"},{"inputs":[{"internalType":"address","name":"user","type":"address"},{"internalType":"uint256","name":"amount","type":"uint256"}],"name":"receivePayment","outputs":[],"stateMutability":"nonpayable","type":"function"},{"inputs":[{"internalType":"address","name":"user","type":"address"},{"internalType":"uint256","name":"amount","type":"uint256"},{"internalType":"uint256","name":"deadline","type":"uint256"},{"internalType":"uint8","name":"v","type":"uint8"},{"internalType":"bytes32","name":"r","type":"bytes32"},{"internalType":"bytes32","name":"s","type":"bytes32"}],"name":"receivePaymentWithPermit","outputs":[],"stateMutability":"nonpayable","type":"function"},{"inputs":[],"name":"renounceOwnership","outputs":[],"stateMutability":"nonpayable","type":"function"},{"inputs":[{"internalType":"uint256","name":"newCost","type":"uint256"}],"name":"setFlockCost","outputs":[],"stateMutability":"nonpayable","type":"function"},{"inputs":[{"internalType":"address","name":"newWallet","type":"address"}],"name":"setFlockWallet","outputs":[],"stateMutability":"nonpayable","type":"function"},{"inputs":[{"internalType":"address","name":"newAdmin","type":"address"}],"name":"setTreasuryAdmin","outputs":[],"stateMutability":"nonpayable","type":"function"},{"inputs":[],"name":"totalFlockPayments","outputs":[{"internalType":"uint256","name":"","type":"uint256"}],"stateMutability":"view","type":"function"},{"inputs":[],"name":"totalTreasuryBalance","outputs":[{"internalType":"uint256","name":"","type":"uint256"}],"stateMutability":"view","type":"function"},{"inputs":[{"internalType":"address","name":"newOwner","type":"address"}],"name":"transferOwnership","outputs":[],"stateMutability":"nonpayable","type":"function"},{"inputs":[],"name":"treasuryAdmin","outputs":[{"internalType":"address","name":"","type":"address"}],"stateMutability":"view","type":"function"},{"inputs":[],"name":"usdc","outputs":[{"internalType":"contract IERC20","name":"","type":"address"}],"stateMutability":"view","type":"function"},{"inputs":[{"internalType":"address","name":"","type":"address"}],"name":"userBalances","outputs":[{"internalType":"uint256","name":"","type":"uint256"}],"stateMutability":"view","type":"function"},{"inputs":[{"internalType":"address","name":"","type":"address"}],"name":"userCallCount","outputs":[{"internalType":"uint256","name":"","type":"uint256"}],"stateMutability":"view","type":"function"},{"inputs":[{"internalType":"address","name":"","type":"address"}],"name":"userTotalPaid","outputs":[{"internalType":"uint256","name":"","type":"uint256"}],"stateMutability":"view","type":"function"},{"inputs":[{"internalType":"uint256","name":"amount","type":"uint256"}],"name":"withdrawUSDC","outputs":[],"stateMutability":"nonpayable","type":"function"},{"stateMutability":"payable","type":"receive"}],"evm":{"bytecode":{"linkReferences":{},"object":"6080604052620186a06003553480156200001857600080fd5b5060405162001af238038062001af28339810160408190526200003b9162000234565b806001600160a01b0381166200006c57604051631e4fbdf760e01b8152600060048201526024015b60405180910390fd5b6200007781620001c7565b50600180556001600160a01b038316620000d45760405162461bcd60e51b815260206004820152601460248201527f496e76616c696420555344432061646472657373000000000000000000000000604482015260640162000063565b6001600160a01b0382166200012c5760405162461bcd60e51b815260206004820152601460248201527f496e76616c696420466c6f636b2077616c6c6574000000000000000000000000604482015260640162000063565b6001600160a01b038116620001845760405162461bcd60e51b815260206004820152601660248201527f496e76616c69642054726561737572792061646d696e00000000000000000000604482015260640162000063565b600280546001600160a01b039485166001600160a01b0319918216179091556007805493851693821693909317909255600880549190931691161790556200027e565b600080546001600160a01b038381166001600160a01b0319831681178455604051919092169283917f8be0079c531659141344cd1fd0a4f28419497f9722a3daafe3b4186f6b6457e09190a35050565b80516001600160a01b03811681146200022f57600080fd5b919050565b6000806000606084860312156200024a57600080fd5b620002558462000217565b9250620002656020850162000217565b9150620002756040850162000217565b90509250925092565b611864806200028e6000396000f3fe6080604052600436106101bb5760003560e01c8063ac0c62b7116100ec578063db81f99b1161008a578063ec4a59d911610064578063ec4a59d91461056a578063ecbc8fa714610580578063f2fde38b146105a0578063f8b2cb4f146105c057600080fd5b8063db81f99b146104fd578063dbcaf5bb1461051d578063e2fbae481461054a57600080fd5b8063d319f485116100c6578063d319f4851461047c578063d7506dbb14610492578063d881db19146104b2578063db2e21bc146104e857600080fd5b8063ac0c62b714610431578063be6771f614610447578063cfec010c1461045c57600080fd5b8063700f39cf116101595780638da5cb5b116101335780638da5cb5b146103be57806392e69cf9146103dc5780639b5655dc146103fc578063a3e1484a1461041157600080fd5b8063700f39cf1461034c578063715018a61461037c578063794f75ba1461039157600080fd5b80634af18f4f116101955780634af18f4f146102b65780635259b9ab146102d65780636335ee3e146102f657806364c735301461032c57600080fd5b80630f66ef021461021c57806326224c641461023e5780633e413bee1461027e57600080fd5b366102175760405162461bcd60e51b815260206004820152602160248201527f5468697320636f6e747261637420646f6573206e6f74206163636570742045546044820152600960fb1b60648201526084015b60405180910390fd5b600080fd5b34801561022857600080fd5b5061023c61023736600461160e565b6105f6565b005b34801561024a57600080fd5b5061026b61025936600461160e565b60046020526000908152604090205481565b6040519081526020015b60405180910390f35b34801561028a57600080fd5b5060025461029e906001600160a01b031681565b6040516001600160a01b039091168152602001610275565b3480156102c257600080fd5b5061026b6102d1366004611630565b610666565b3480156102e257600080fd5b5061023c6102f1366004611649565b61067c565b34801561030257600080fd5b5061026b61031136600461160e565b6001600160a01b031660009081526006602052604090205490565b34801561033857600080fd5b5060075461029e906001600160a01b031681565b34801561035857600080fd5b5061036c610367366004611649565b61087a565b6040519015158152602001610275565b34801561038857600080fd5b5061023c610acc565b34801561039d57600080fd5b5061026b6103ac36600461160e565b60056020526000908152604090205481565b3480156103ca57600080fd5b506000546001600160a01b031661029e565b3480156103e857600080fd5b5061023c6103f7366004611630565b610ae0565b34801561040857600080fd5b50600a5461026b565b34801561041d57600080fd5b5061023c61042c366004611673565b610b66565b34801561043d57600080fd5b5061026b60035481565b34801561045357600080fd5b5060095461026b565b34801561046857600080fd5b5060085461029e906001600160a01b031681565b34801561048857600080fd5b5061026b60095481565b34801561049e57600080fd5b5061023c6104ad36600461160e565b610e3d565b3480156104be57600080fd5b5061026b6104cd36600461160e565b6001600160a01b031660009081526005602052604090205490565b3480156104f457600080fd5b5061023c610ed6565b34801561050957600080fd5b5061023c610518366004611630565b61109f565b34801561052957600080fd5b5061026b61053836600461160e565b60066020526000908152604090205481565b34801561055657600080fd5b5061036c610565366004611649565b611260565b34801561057657600080fd5b5061026b600a5481565b34801561058c57600080fd5b5061023c61059b366004611649565b611422565b3480156105ac57600080fd5b5061023c6105bb36600461160e565b611510565b3480156105cc57600080fd5b5061026b6105db36600461160e565b6001600160a01b031660009081526004602052604090205490565b6105fe61154b565b6001600160a01b0381166106445760405162461bcd60e51b815260206004820152600d60248201526c24b73b30b634b21030b236b4b760991b604482015260640161020e565b600880546001600160a01b0319166001600160a01b0392909216919091179055565b60008160035461067691906116e9565b92915050565b610684611578565b6001600160a01b0382166106aa5760405162461bcd60e51b815260040161020e90611700565b600081116106ca5760405162461bcd60e51b815260040161020e9061172e565b6001600160a01b038216600090815260046020526040812080548392906106f290849061175a565b90915550506001600160a01b0382166000908152600560205260408120805483929061071f90849061175a565b9250508190555080600a6000828254610738919061175a565b90915550506002546040516323b872dd60e01b81526001600160a01b03848116600483015230602483015260448201849052909116906323b872dd906064016020604051808303816000875af1158015610796573d6000803e3d6000fd5b505050506040513d601f19601f820116820180604052508101906107ba919061176d565b6107fd5760405162461bcd60e51b81526020600482015260146024820152731554d110c81d1c985b9cd9995c8819985a5b195960621b604482015260640161020e565b816001600160a01b03167f237b94339b1dc667f5a951cf2ee33f00228f658a6ab811cc6afa6caaa4b80cfa82426040516108659291909182526020820152606060408201819052600c908201526b1e0d0c0c881c185e5b595b9d60a21b608082015260a00190565b60405180910390a261087660018055565b5050565b600061088461154b565b61088c611578565b6001600160a01b0383166108b25760405162461bcd60e51b815260040161020e90611700565b600082116108fb5760405162461bcd60e51b8152602060048201526016602482015275043616c6c20636f756e74206d757374206265203e20360541b604482015260640161020e565b60008260035461090b91906116e9565b6001600160a01b0385166000908152600460205260409020549091508111156109465760405162461bcd60e51b815260040161020e9061178f565b6001600160a01b0384166000908152600460205260408120805483929061096e9084906117bd565b90915550506001600160a01b0384166000908152600660205260408120805485929061099b90849061175a565b9250508190555080600960008282546109b4919061175a565b909155505060025460075460405163a9059cbb60e01b81526001600160a01b0391821660048201526024810184905291169063a9059cbb906044016020604051808303816000875af1158015610a0e573d6000803e3d6000fd5b505050506040513d601f19601f82011682018060405250810190610a32919061176d565b610a755760405162461bcd60e51b8152602060048201526014602482015273119b1bd8dac81c185e5b595b9d0819985a5b195960621b604482015260640161020e565b6040805182815260208101859052428183015290516001600160a01b038616917fa6875992227aee7a726c2eeab2dd3b14fed5d4dbca0ab659fe3f88d18e83afe8919081900360600190a250506001808055610676565b610ad461154b565b610ade60006115a2565b565b610ae861154b565b60008111610b2b5760405162461bcd60e51b815260206004820152601060248201526f0436f7374206d757374206265203e20360841b604482015260640161020e565b60038190556040518181527f2f56169364380fe772080a81e5c6658d12178e83a22e1d65525d0709d55bd90e9060200160405180910390a150565b610b6e611578565b6001600160a01b038616610b945760405162461bcd60e51b815260040161020e90611700565b60008511610bb45760405162461bcd60e51b815260040161020e9061172e565b60025460405163d505accf60e01b81526001600160a01b038881166004830152306024830152604482018890526064820187905260ff8616608483015260a4820185905260c482018490529091169063d505accf9060e401600060405180830381600087803b158015610c2657600080fd5b505af1158015610c3a573d6000803e3d6000fd5b505050506001600160a01b03861660009081526004602052604081208054879290610c6690849061175a565b90915550506001600160a01b03861660009081526005602052604081208054879290610c9390849061175a565b9250508190555084600a6000828254610cac919061175a565b90915550506002546040516323b872dd60e01b81526001600160a01b03888116600483015230602483015260448201889052909116906323b872dd906064016020604051808303816000875af1158015610d0a573d6000803e3d6000fd5b505050506040513d601f19601f82011682018060405250810190610d2e919061176d565b610d715760405162461bcd60e51b81526020600482015260146024820152731554d110c81d1c985b9cd9995c8819985a5b195960621b604482015260640161020e565b856001600160a01b03167f237b94339b1dc667f5a951cf2ee33f00228f658a6ab811cc6afa6caaa4b80cfa8642604051610dd99291909182526020820152606060408201819052600c908201526b1e0d0c0c881c185e5b595b9d60a21b608082015260a00190565b60405180910390a26040805186815260208101869052428183015290516001600160a01b038816917f2bc562b9d914b9675c534c695e367bf7c77cddea59ef5fea4a541066b930e64c919081900360600190a2610e3560018055565b505050505050565b610e4561154b565b6001600160a01b038116610e8c5760405162461bcd60e51b815260206004820152600e60248201526d125b9d985b1a59081dd85b1b195d60921b604482015260640161020e565b600780546001600160a01b0319166001600160a01b0383169081179091556040517f0ee9c40b3fdb120fcb3bba00c1e05f73606b01b33217f04f89f42e0bcad0980290600090a250565b610ede61154b565b610ee6611578565b6002546040516370a0823160e01b81523060048201526000916001600160a01b0316906370a0823190602401602060405180830381865afa158015610f2f573d6000803e3d6000fd5b505050506040513d601f19601f82011682018060405250810190610f5391906117d0565b905060008111610f9e5760405162461bcd60e51b81526020600482015260166024820152754e6f2062616c616e636520746f20776974686472617760501b604482015260640161020e565b6002546001600160a01b031663a9059cbb610fc16000546001600160a01b031690565b6040516001600160e01b031960e084901b1681526001600160a01b039091166004820152602481018490526044016020604051808303816000875af115801561100e573d6000803e3d6000fd5b505050506040513d601f19601f82011682018060405250810190611032919061176d565b61104e5760405162461bcd60e51b815260040161020e906117e9565b600054604080518381524260208201526001600160a01b03909216917f198c9a3869a23d7c0e404b2f9adb78e7f3c699f6df9bfc4ffa588c64036d217e910160405180910390a250610ade60018055565b6110a761154b565b6110af611578565b600081116110cf5760405162461bcd60e51b815260040161020e9061172e565b6002546040516370a0823160e01b815230600482015282916001600160a01b0316906370a0823190602401602060405180830381865afa158015611117573d6000803e3d6000fd5b505050506040513d601f19601f8201168201806040525081019061113b91906117d0565b10156111895760405162461bcd60e51b815260206004820152601d60248201527f496e73756666696369656e7420636f6e74726163742062616c616e6365000000604482015260640161020e565b60025460405163a9059cbb60e01b8152336004820152602481018390526001600160a01b039091169063a9059cbb906044016020604051808303816000875af11580156111da573d6000803e3d6000fd5b505050506040513d601f19601f820116820180604052508101906111fe919061176d565b61121a5760405162461bcd60e51b815260040161020e906117e9565b6040805182815242602082015233917f198c9a3869a23d7c0e404b2f9adb78e7f3c699f6df9bfc4ffa588c64036d217e910160405180910390a261125d60018055565b50565b600061126a61154b565b611272611578565b6001600160a01b0383166112985760405162461bcd60e51b815260040161020e90611700565b600082116112b85760405162461bcd60e51b815260040161020e9061172e565b6001600160a01b0383166000908152600460205260409020548211156112f05760405162461bcd60e51b815260040161020e9061178f565b6001600160a01b038316600090815260046020526040812080548492906113189084906117bd565b9250508190555081600a600082825461133191906117bd565b909155505060025460075460405163a9059cbb60e01b81526001600160a01b0391821660048201526024810185905291169063a9059cbb906044016020604051808303816000875af115801561138b573d6000803e3d6000fd5b505050506040513d601f19601f820116820180604052508101906113af919061176d565b6113cb5760405162461bcd60e51b815260040161020e906117e9565b6040805183815260006020820152428183015290516001600160a01b038516917fa6875992227aee7a726c2eeab2dd3b14fed5d4dbca0ab659fe3f88d18e83afe8919081900360600190a250600161067660018055565b61142a61154b565b600081131561147f576001600160a01b0382166000908152600460205260408120805483929061145b90849061175a565b9250508190555080600a6000828254611474919061175a565b909155506108769050565b600061148a82611812565b6001600160a01b0384166000908152600460205260409020549091508111156114c55760405162461bcd60e51b815260040161020e9061178f565b6001600160a01b038316600090815260046020526040812080548392906114ed9084906117bd565b9250508190555080600a600082825461150691906117bd565b9091555050505050565b61151861154b565b6001600160a01b03811661154257604051631e4fbdf760e01b81526000600482015260240161020e565b61125d816115a2565b6000546001600160a01b03163314610ade5760405163118cdaa760e01b815233600482015260240161020e565b60026001540361159b57604051633ee5aeb560e01b815260040160405180910390fd5b6002600155565b600080546001600160a01b038381166001600160a01b0319831681178455604051919092169283917f8be0079c531659141344cd1fd0a4f28419497f9722a3daafe3b4186f6b6457e09190a35050565b80356001600160a01b038116811461160957600080fd5b919050565b60006020828403121561162057600080fd5b611629826115f2565b9392505050565b60006020828403121561164257600080fd5b5035919050565b6000806040838503121561165c57600080fd5b611665836115f2565b946020939093013593505050565b60008060008060008060c0878903121561168c57600080fd5b611695876115f2565b95506020870135945060408701359350606087013560ff811681146116b957600080fd5b9598949750929560808101359460a0909101359350915050565b634e487b7160e01b600052601160045260246000fd5b8082028115828204841417610676576106766116d3565b602080825260149082015273496e76616c69642075736572206164647265737360601b604082015260600190565b6020808252601290820152710416d6f756e74206d757374206265203e20360741b604082015260600190565b80820180821115610676576106766116d3565b60006020828403121561177f57600080fd5b8151801515811461162957600080fd5b602080825260149082015273496e73756666696369656e742062616c616e636560601b604082015260600190565b81810381811115610676576106766116d3565b6000602082840312156117e257600080fd5b5051919050565b6020808252600f908201526e151c985b9cd9995c8819985a5b1959608a1b604082015260600190565b6000600160ff1b8201611827576118276116d3565b506000039056fea2646970667358221220355eb76fe1a3253ef0993b67ea4bbedbbd27ebccdf4039aefa9e31cf9f5a9bac64736f6c63430008140033","opcodes":"PUSH1 0x80 PUSH1 0x40 MSTORE PUSH3 0x186A0 PUSH1 0x3 SSTORE CALLVALUE DUP1 ISZERO PUSH3 0x18 JUMPI PUSH1 0x0 DUP1 REVERT JUMPDEST POP PUSH1 0x40 MLOAD PUSH3 0x1AF2 CODESIZE SUB DUP1 PUSH3 0x1AF2 DUP4 CODECOPY DUP2 ADD PUSH1 0x40 DUP2 SWAP1 MSTORE PUSH3 0x3B SWAP2 PUSH3 0x234 JUMP JUMPDEST DUP1 PUSH1 0x1 PUSH1 0x1 PUSH1 0xA0 SHL SUB DUP2 AND PUSH3 0x6C JUMPI PUSH1 0x40 MLOAD PUSH4 0x1E4FBDF7 PUSH1 0xE0 SHL DUP2 MSTORE PUSH1 0x0 PUSH1 0x4 DUP3 ADD MSTORE PUSH1 0x24 ADD JUMPDEST PUSH1 0x40 MLOAD DUP1 SWAP2 SUB SWAP1 REVERT JUMPDEST PUSH3 0x77 DUP2 PUSH3 0x1C7 JUMP JUMPDEST POP PUSH1 0x1 DUP1 SSTORE PUSH1 0x1 PUSH1 0x1 PUSH1 0xA0 SHL SUB DUP4 AND PUSH3 0xD4 JUMPI PUSH1 0x40 MLOAD PUSH3 0x461BCD PUSH1 0xE5 SHL DUP2 MSTORE PUSH1 0x20 PUSH1 0x4 DUP3 ADD MSTORE PUSH1 0x14 PUSH1 0x24 DUP3 ADD MSTORE PUSH32 0x496E76616C696420555344432061646472657373000000000000000000000000 PUSH1 0x44 DUP3 ADD MSTORE PUSH1 0x64 ADD PUSH3 0x63 JUMP JUMPDEST PUSH1 0x1 PUSH1 0x1 PUSH1 0xA0 SHL SUB DUP3 AND PUSH3 0x12C JUMPI PUSH1 0x40 MLOAD PUSH3 0x461BCD PUSH1 0xE5 SHL DUP2 MSTORE PUSH1 0x20 PUSH1 0x4 DUP3 ADD MSTORE PUSH1 0x14 PUSH1 0x24 DUP3 ADD MSTORE PUSH32 0x496E76616C696420466C6F636B2077616C6C6574000000000000000000000000 PUSH1 0x44 DUP3 ADD MSTORE PUSH1 0x64 ADD PUSH3 0x63 JUMP JUMPDEST PUSH1 0x1 PUSH1 0x1 PUSH1 0xA0 SHL SUB DUP2 AND PUSH3 0x184 JUMPI PUSH1 0x40 MLOAD PUSH3 0x461BCD PUSH1 0xE5 SHL DUP2 MSTORE PUSH1 0x20 PUSH1 0x4 DUP3 ADD MSTORE PUSH1 0x16 PUSH1 0x24 DUP3 ADD MSTORE PUSH32 0x496E76616C69642054726561737572792061646D696E00000000000000000000 PUSH1 0x44 DUP3 ADD MSTORE PUSH1 0x64 ADD PUSH3 0x63 JUMP JUMPDEST PUSH1 0x2 DUP1 SLOAD PUSH1 0x1 PUSH1 0x1 PUSH1 0xA0 SHL SUB SWAP5 DUP6 AND PUSH1 0x1 PUSH1 0x1 PUSH1 0xA0 SHL SUB NOT SWAP2 DUP3 AND OR SWAP1 SWAP2 SSTORE PUSH1 0x7 DUP1 SLOAD SWAP4 DUP6 AND SWAP4 DUP3 AND SWAP4 SWAP1 SWAP4 OR SWAP1 SWAP3 SSTORE PUSH1 0x8 DUP1 SLOAD SWAP2 SWAP1 SWAP4 AND SWAP2 AND OR SWAP1 SSTORE PUSH3 0x27E JUMP JUMPDEST PUSH1 0x0 DUP1 SLOAD PUSH1 0x1 PUSH1 0x1 PUSH1 0xA0 SHL SUB DUP4 DUP2 AND PUSH1 0x1 PUSH1 0x1 PUSH1 0xA0 SHL SUB NOT DUP4 AND DUP2 OR DUP5 SSTORE PUSH1 0x40 MLOAD SWAP2 SWAP1 SWAP3 AND SWAP3 DUP4 SWAP2 PUSH32 0x8BE0079C531659141344CD1FD0A4F28419497F9722A3DAAFE3B4186F6B6457E0 SWAP2 SWAP1 LOG3 POP POP JUMP JUMPDEST DUP1 MLOAD PUSH1 0x1 PUSH1 0x1 PUSH1 0xA0 SHL SUB DUP2 AND DUP2 EQ PUSH3 0x22F JUMPI PUSH1 0x0 DUP1 REVERT JUMPDEST SWAP2 SWAP1 POP JUMP JUMPDEST PUSH1 0x0 DUP1 PUSH1 0x0 PUSH1 0x60 DUP5 DUP7 SUB SLT ISZERO PUSH3 0x24A JUMPI PUSH1 0x0 DUP1 REVERT JUMPDEST PUSH3 0x255 DUP5 PUSH3 0x217 JUMP JUMPDEST SWAP3 POP PUSH3 0x265 PUSH1 0x20 DUP6 ADD PUSH3 0x217 JUMP JUMPDEST SWAP2 POP PUSH3 0x275 PUSH1 0x40 DUP6 ADD PUSH3 0x217 JUMP JUMPDEST SWAP1 POP SWAP3 POP SWAP3 POP SWAP3 JUMP JUMPDEST PUSH2 0x1864 DUP1 PUSH3 0x28E PUSH1 0x0 CODECOPY PUSH1 0x0 RETURN INVALID PUSH1 0x80 PUSH1 0x40 MSTORE PUSH1 0x4 CALLDATASIZE LT PUSH2 0x1BB JUMPI PUSH1 0x0 CALLDATALOAD PUSH1 0xE0 SHR DUP1 PUSH4 0xAC0C62B7 GT PUSH2 0xEC JUMPI DUP1 PUSH4 0xDB81F99B GT PUSH2 0x8A JUMPI DUP1 PUSH4 0xEC4A59D9 GT PUSH2 0x64 JUMPI DUP1 PUSH4 0xEC4A59D9 EQ PUSH2 0x56A JUMPI DUP1 PUSH4 0xECBC8FA7 EQ PUSH2 0x580 JUMPI DUP1 PUSH4 0xF2FDE38B EQ PUSH2 0x5A0 JUMPI DUP1 PUSH4 0xF8B2CB4F EQ PUSH2 0x5C0 JUMPI PUSH1 0x0 DUP1 REVERT JUMPDEST DUP1 PUSH4 0xDB81F99B EQ PUSH2 0x4FD JUMPI DUP1 PUSH4 0xDBCAF5BB EQ PUSH2 0x51D JUMPI DUP1 PUSH4 0xE2FBAE48 EQ PUSH2 0x54A JUMPI PUSH1 0x0 DUP1 REVERT JUMPDEST DUP1 PUSH4 0xD319F485 GT PUSH2 0xC6 JUMPI DUP1 PUSH4 0xD319F485 EQ PUSH2 0x47C JUMPI DUP1 PUSH4 0xD7506DBB EQ PUSH2 0x492 JUMPI DUP1 PUSH4 0xD881DB19 EQ PUSH2 0x4B2 JUMPI DUP1 PUSH4 0xDB2E21BC EQ PUSH2 0x4E8 JUMPI PUSH1 0x0 DUP1 REVERT JUMPDEST DUP1 PUSH4 0xAC0C62B7 EQ PUSH2 0x431 JUMPI DUP1 PUSH4 0xBE6771F6 EQ PUSH2 0x447 JUMPI DUP1 PUSH4 0xCFEC010C EQ PUSH2 0x45C JUMPI PUSH1 0x0 DUP1 REVERT JUMPDEST DUP1 PUSH4 0x700F39CF GT PUSH2 0x159 JUMPI DUP1 PUSH4 0x8DA5CB5B GT PUSH2 0x133 JUMPI DUP1 PUSH4 0x8DA5CB5B EQ PUSH2 0x3BE JUMPI DUP1 PUSH4 0x92E69CF9 EQ PUSH2 0x3DC JUMPI DUP1 PUSH4 0x9B5655DC EQ PUSH2 0x3FC JUMPI DUP1 PUSH4 0xA3E1484A EQ PUSH2 0x411 JUMPI PUSH1 0x0 DUP1 REVERT JUMPDEST DUP1 PUSH4 0x700F39CF EQ PUSH2 0x34C JUMPI DUP1 PUSH4 0x715018A6 EQ PUSH2 0x37C JUMPI DUP1 PUSH4 0x794F75BA EQ PUSH2 0x391 JUMPI PUSH1 0x0 DUP1 REVERT JUMPDEST DUP1 PUSH4 0x4AF18F4F GT PUSH2 0x195 JUMPI DUP1 PUSH4 0x4AF18F4F EQ PUSH2 0x2B6 JUMPI DUP1 PUSH4 0x5259B9AB EQ PUSH2 0x2D6 JUMPI DUP1 PUSH4 0x6335EE3E EQ PUSH2 0x2F6 JUMPI DUP1 PUSH4 0x64C73530 EQ PUSH2 0x32C JUMPI PUSH1 0x0 DUP1 REVERT JUMPDEST DUP1 PUSH4 0xF66EF02 EQ PUSH2 0x21C JUMPI DUP1 PUSH4 0x26224C64 EQ PUSH2 0x23E JUMPI DUP1 PUSH4 0x3E413BEE EQ PUSH2 0x27E JUMPI PUSH1 0x0 DUP1 REVERT JUMPDEST CALLDATASIZE PUSH2 0x217 JUMPI PUSH1 0x40 MLOAD PUSH3 0x461BCD PUSH1 0xE5 SHL DUP2 MSTORE PUSH1 0x20 PUSH1 0x4 DUP3 ADD MSTORE PUSH1 0x21 PUSH1 0x24 DUP3 ADD MSTORE PUSH32 0x5468697320636F6E747261637420646F6573206E6F7420616363657074204554 PUSH1 0x44 DUP3 ADD MSTORE PUSH1 0x9 PUSH1 0xFB SHL PUSH1 0x64 DUP3 ADD MSTORE PUSH1 0x84 ADD JUMPDEST PUSH1 0x40 MLOAD DUP1 SWAP2 SUB SWAP1 REVERT JUMPDEST PUSH1 0x0 DUP1 REVERT JUMPDEST CALLVALUE DUP1 ISZERO PUSH2 0x228 JUMPI PUSH1 0x0 DUP1 REVERT JUMPDEST POP PUSH2 0x23C PUSH2 0x237 CALLDATASIZE PUSH1 0x4 PUSH2 0x160E JUMP JUMPDEST PUSH2 0x5F6 JUMP JUMPDEST STOP JUMPDEST CALLVALUE DUP1 ISZERO PUSH2 0x24A JUMPI PUSH1 0x0 DUP1 REVERT JUMPDEST POP PUSH2 0x26B PUSH2 0x259 CALLDATASIZE PUSH1 0x4 PUSH2 0x160E JUMP JUMPDEST PUSH1 0x4 PUSH1 0x20 MSTORE PUSH1 0x0 SWAP1 DUP2 MSTORE PUSH1 0x40 SWAP1 KECCAK256 SLOAD DUP2 JUMP JUMPDEST PUSH1 0x40 MLOAD SWAP1 DUP2 MSTORE PUSH1 0x20 ADD JUMPDEST PUSH1 0x40 MLOAD DUP1 SWAP2 SUB SWAP1 RETURN JUMPDEST CALLVALUE DUP1 ISZERO PUSH2 0x28A JUMPI PUSH1 0x0 DUP1 REVERT JUMPDEST POP PUSH1 0x2 SLOAD PUSH2 0x29E SWAP1 PUSH1 0x1 PUSH1 0x1 PUSH1 0xA0 SHL SUB AND DUP2 JUMP JUMPDEST PUSH1 0x40 MLOAD PUSH1 0x1 PUSH1 0x1 PUSH1 0xA0 SHL SUB SWAP1 SWAP2 AND DUP2 MSTORE PUSH1 0x20 ADD PUSH2 0x275 JUMP JUMPDEST CALLVALUE DUP1 ISZERO PUSH2 0x2C2 JUMPI PUSH1 0x0 DUP1 REVERT JUMPDEST POP PUSH2 0x26B PUSH2 0x2D1 CALLDATASIZE PUSH1 0x4 PUSH2 0x1630 JUMP JUMPDEST PUSH2 0x666 JUMP JUMPDEST CALLVALUE DUP1 ISZERO PUSH2 0x2E2 JUMPI PUSH1 0x0 DUP1 REVERT JUMPDEST POP PUSH2 0x23C PUSH2 0x2F1 CALLDATASIZE PUSH1 0x4 PUSH2 0x1649 JUMP JUMPDEST PUSH2 0x67C JUMP JUMPDEST CALLVALUE DUP1 ISZERO PUSH2 0x302 JUMPI PUSH1 0x0 DUP1 REVERT JUMPDEST POP PUSH2 0x26B PUSH2 0x311 CALLDATASIZE PUSH1 0x4 PUSH2 0x160E JUMP JUMPDEST PUSH1 0x1 PUSH1 0x1 PUSH1 0xA0 SHL SUB AND PUSH1 0x0 SWAP1 DUP2 MSTORE PUSH1 0x6 PUSH1 0x20 MSTORE PUSH1 0x40 SWAP1 KECCAK256 SLOAD SWAP1 JUMP JUMPDEST CALLVALUE DUP1 ISZERO PUSH2 0x338 JUMPI PUSH1 0x0 DUP1 REVERT JUMPDEST POP PUSH1 0x7 SLOAD PUSH2 0x29E SWAP1 PUSH1 0x1 PUSH1 0x1 PUSH1 0xA0 SHL SUB AND DUP2 JUMP JUMPDEST CALLVALUE DUP1 ISZERO PUSH2 0x358 JUMPI PUSH1 0x0 DUP1 REVERT JUMPDEST POP PUSH2 0x36C PUSH2 0x367 CALLDATASIZE PUSH1 0x4 PUSH2 0x1649 JUMP JUMPDEST PUSH2 0x87A JUMP JUMPDEST PUSH1 0x40 MLOAD SWAP1 ISZERO ISZERO DUP2 MSTORE PUSH1 0x20 ADD PUSH2 0x275 JUMP JUMPDEST CALLVALUE DUP1 ISZERO PUSH2 0x388 JUMPI PUSH1 0x0 DUP1 REVERT JUMPDEST POP PUSH2 0x23C PUSH2 0xACC JUMP JUMPDEST CALLVALUE DUP1 ISZERO PUSH2 0x39D JUMPI PUSH1 0x0 DUP1 REVERT JUMPDEST POP PUSH2 0x26B PUSH2 0x3AC CALLDATASIZE PUSH1 0x4 PUSH2 0x160E JUMP JUMPDEST PUSH1 0x5 PUSH1 0x20 MSTORE PUSH1 0x0 SWAP1 DUP2 MSTORE PUSH1 0x40 SWAP1 KECCAK256 SLOAD DUP2 JUMP JUMPDEST CALLVALUE DUP1 ISZERO PUSH2 0x3CA JUMPI PUSH1 0x0 DUP1 REVERT JUMPDEST POP PUSH1 0x0 SLOAD PUSH1 0x1 PUSH1 0x1 PUSH1 0xA0 SHL SUB AND PUSH2 0x29E JUMP JUMPDEST CALLVALUE DUP1 ISZERO PUSH2 0x3E8 JUMPI PUSH1 0x0 DUP1 REVERT JUMPDEST POP PUSH2 0x23C PUSH2 0x3F7 CALLDATASIZE PUSH1 0x4 PUSH2 0x1630 JUMP JUMPDEST PUSH2 0xAE0 JUMP JUMPDEST CALLVALUE DUP1 ISZERO PUSH2 0x408 JUMPI PUSH1 0x0 DUP1 REVERT JUMPDEST POP PUSH1 0xA SLOAD PUSH2 0x26B JUMP JUMPDEST CALLVALUE DUP1 ISZERO PUSH2 0x41D JUMPI PUSH1 0x0 DUP1 REVERT JUMPDEST POP PUSH2 0x23C PUSH2 0x42C CALLDATASIZE PUSH1 0x4 PUSH2 0x1673 JUMP JUMPDEST PUSH2 0xB66 JUMP JUMPDEST CALLVALUE DUP1 ISZERO PUSH2 0x43D JUMPI PUSH1 0x0 DUP1 REVERT JUMPDEST POP PUSH2 0x26B PUSH1 0x3 SLOAD DUP2 JUMP JUMPDEST CALLVALUE DUP1 ISZERO PUSH2 0x453 JUMPI PUSH1 0x0 DUP1 REVERT JUMPDEST POP PUSH1 0x9 SLOAD PUSH2 0x26B JUMP JUMPDEST CALLVALUE DUP1 ISZERO PUSH2 0x468 JUMPI PUSH1 0x0 DUP1 REVERT JUMPDEST POP PUSH1 0x8 SLOAD PUSH2 0x29E SWAP1 PUSH1 0x1 PUSH1 0x1 PUSH1 0xA0 SHL SUB AND DUP2 JUMP JUMPDEST CALLVALUE DUP1 ISZERO PUSH2 0x488 JUMPI PUSH1 0x0 DUP1 REVERT JUMPDEST POP PUSH2 0x26B PUSH1 0x9 SLOAD DUP2 JUMP JUMPDEST CALLVALUE DUP1 ISZERO PUSH2 0x49E JUMPI PUSH1 0x0 DUP1 REVERT JUMPDEST POP PUSH2 0x23C PUSH2 0x4AD CALLDATASIZE PUSH1 0x4 PUSH2 0x160E JUMP JUMPDEST PUSH2 0xE3D JUMP JUMPDEST CALLVALUE DUP1 ISZERO PUSH2 0x4BE JUMPI PUSH1 0x0 DUP1 REVERT JUMPDEST POP PUSH2 0x26B PUSH2 0x4CD CALLDATASIZE PUSH1 0x4 PUSH2 0x160E JUMP JUMPDEST PUSH1 0x1 PUSH1 0x1 PUSH1 0xA0 SHL SUB AND PUSH1 0x0 SWAP1 DUP2 MSTORE PUSH1 0x5 PUSH1 0x20 MSTORE PUSH1 0x40 SWAP1 KECCAK256 SLOAD SWAP1 JUMP JUMPDEST CALLVALUE DUP1 ISZERO PUSH2 0x4F4 JUMPI PUSH1 0x0 DUP1 REVERT JUMPDEST POP PUSH2 0x23C PUSH2 0xED6 JUMP JUMPDEST CALLVALUE DUP1 ISZERO PUSH2 0x509 JUMPI PUSH1 0x0 DUP1 REVERT JUMPDEST POP PUSH2 0x23C PUSH2 0x518 CALLDATASIZE PUSH1 0x4 PUSH2 0x1630 JUMP JUMPDEST PUSH2 0x109F JUMP JUMPDEST CALLVALUE DUP1 ISZERO PUSH2 0x529 JUMPI PUSH1 0x0 DUP1 REVERT JUMPDEST POP PUSH2 0x26B PUSH2 0x538 CALLDATASIZE PUSH1 0x4 PUSH2 0x160E JUMP JUMPDEST PUSH1 0x6 PUSH1 0x20 MSTORE PUSH1 0x0 SWAP1 DUP2 MSTORE PUSH1 0x40 SWAP1 KECCAK256 SLOAD DUP2 JUMP JUMPDEST CALLVALUE DUP1 ISZERO PUSH2 0x556 JUMPI PUSH1 0x0 DUP1 REVERT JUMPDEST POP PUSH2 0x36C PUSH2 0x565 CALLDATASIZE PUSH1 0x4 PUSH2 0x1649 JUMP JUMPDEST PUSH2 0x1260 JUMP JUMPDEST CALLVALUE DUP1 ISZERO PUSH2 0x576 JUMPI PUSH1 0x0 DUP1 REVERT JUMPDEST POP PUSH2 0x26B PUSH1 0xA SLOAD DUP2 JUMP JUMPDEST CALLVALUE DUP1 ISZERO PUSH2 0x58C JUMPI PUSH1 0x0 DUP1 REVERT JUMPDEST POP PUSH2 0x23C PUSH2 0x59B CALLDATASIZE PUSH1 0x4 PUSH2 0x1649 JUMP JUMPDEST PUSH2 0x1422 JUMP JUMPDEST CALLVALUE DUP1 ISZERO PUSH2 0x5AC JUMPI PUSH1 0x0 DUP1 REVERT JUMPDEST POP PUSH2 0x23C PUSH2 0x5BB CALLDATASIZE PUSH1 0x4 PUSH2 0x160E JUMP JUMPDEST PUSH2 0x1510 JUMP JUMPDEST CALLVALUE DUP1 ISZERO PUSH2 0x5CC JUMPI PUSH1 0x0 DUP1 REVERT JUMPDEST POP PUSH2 0x26B PUSH2 0x5DB CALLDATASIZE PUSH1 0x4 PUSH2 0x160E JUMP JUMPDEST PUSH1 0x1 PUSH1 0x1 PUSH1 0xA0 SHL SUB AND PUSH1 0x0 SWAP1 DUP2 MSTORE PUSH1 0x4 PUSH1 0x20 MSTORE PUSH1 0x40 SWAP1 KECCAK256 SLOAD SWAP1 JUMP JUMPDEST PUSH2 0x5FE PUSH2 0x154B JUMP JUMPDEST PUSH1 0x1 PUSH1 0x1 PUSH1 0xA0 SHL SUB DUP2 AND PUSH2 0x644 JUMPI PUSH1 0x40 MLOAD PUSH3 0x461BCD PUSH1 0xE5 SHL DUP2 MSTORE PUSH1 0x20 PUSH1 0x4 DUP3 ADD MSTORE PUSH1 0xD PUSH1 0x24 DUP3 ADD MSTORE PUSH13 0x24B73B30B634B21030B236B4B7 PUSH1 0x99 SHL PUSH1 0x44 DUP3 ADD MSTORE PUSH1 0x64 ADD PUSH2 0x20E JUMP JUMPDEST PUSH1 0x8 DUP1 SLOAD PUSH1 0x1 PUSH1 0x1 PUSH1 0xA0 SHL SUB NOT AND PUSH1 0x1 PUSH1 0x1 PUSH1 0xA0 SHL SUB SWAP3 SWAP1 SWAP3 AND SWAP2 SWAP1 SWAP2 OR SWAP1 SSTORE JUMP JUMPDEST PUSH1 0x0 DUP2 PUSH1 0x3 SLOAD PUSH2 0x676 SWAP2 SWAP1 PUSH2 0x16E9 JUMP JUMPDEST SWAP3 SWAP2 POP POP JUMP JUMPDEST PUSH2 0x684 PUSH2 0x1578 JUMP JUMPDEST PUSH1 0x1 PUSH1 0x1 PUSH1 0xA0 SHL SUB DUP3 AND PUSH2 0x6AA JUMPI PUSH1 0x40 MLOAD PUSH3 0x461BCD PUSH1 0xE5 SHL DUP2 MSTORE PUSH1 0x4 ADD PUSH2 0x20E SWAP1 PUSH2 0x1700 JUMP JUMPDEST PUSH1 0x0 DUP2 GT PUSH2 0x6CA JUMPI PUSH1 0x40 MLOAD PUSH3 0x461BCD PUSH1 0xE5 SHL DUP2 MSTORE PUSH1 0x4 ADD PUSH2 0x20E SWAP1 PUSH2 0x172E JUMP JUMPDEST PUSH1 0x1 PUSH1 0x1 PUSH1 0xA0 SHL SUB DUP3 AND PUSH1 0x0 SWAP1 DUP2 MSTORE PUSH1 0x4 PUSH1 0x20 MSTORE PUSH1 0x40 DUP2 KECCAK256 DUP1 SLOAD DUP4 SWAP3 SWAP1 PUSH2 0x6F2 SWAP1 DUP5 SWAP1 PUSH2 0x175A JUMP JUMPDEST SWAP1 SWAP2 SSTORE POP POP PUSH1 0x1 PUSH1 0x1 PUSH1 0xA0 SHL SUB DUP3 AND PUSH1 0x0 SWAP1 DUP2 MSTORE PUSH1 0x5 PUSH1 0x20 MSTORE PUSH1 0x40 DUP2 KECCAK256 DUP1 SLOAD DUP4 SWAP3 SWAP1 PUSH2 0x71F SWAP1 DUP5 SWAP1 PUSH2 0x175A JUMP JUMPDEST SWAP3 POP POP DUP2 SWAP1 SSTORE POP DUP1 PUSH1 0xA PUSH1 0x0 DUP3 DUP3 SLOAD PUSH2 0x738 SWAP2 SWAP1 PUSH2 0x175A JUMP JUMPDEST SWAP1 SWAP2 SSTORE POP POP PUSH1 0x2 SLOAD PUSH1 0x40 MLOAD PUSH4 0x23B872DD PUSH1 0xE0 SHL DUP2 MSTORE PUSH1 0x1 PUSH1 0x1 PUSH1 0xA0 SHL SUB DUP5 DUP2 AND PUSH1 0x4 DUP4 ADD MSTORE ADDRESS PUSH1 0x24 DUP4 ADD MSTORE PUSH1 0x44 DUP3 ADD DUP5 SWAP1 MSTORE SWAP1 SWAP2 AND SWAP1 PUSH4 0x23B872DD SWAP1 PUSH1 0x64 ADD PUSH1 0x20 PUSH1 0x40 MLOAD DUP1 DUP4 SUB DUP2 PUSH1 0x0 DUP8 GAS CALL ISZERO DUP1 ISZERO PUSH2 0x796 JUMPI RETURNDATASIZE PUSH1 0x0 DUP1 RETURNDATACOPY RETURNDATASIZE PUSH1 0x0 REVERT JUMPDEST POP POP POP POP PUSH1 0x40 MLOAD RETURNDATASIZE PUSH1 0x1F NOT PUSH1 0x1F DUP3 ADD AND DUP3 ADD DUP1 PUSH1 0x40 MSTORE POP DUP2 ADD SWAP1 PUSH2 0x7BA SWAP2 SWAP1 PUSH2 0x176D JUMP JUMPDEST PUSH2 0x7FD JUMPI PUSH1 0x40 MLOAD PUSH3 0x461BCD PUSH1 0xE5 SHL DUP2 MSTORE PUSH1 0x20 PUSH1 0x4 DUP3 ADD MSTORE PUSH1 0x14 PUSH1 0x24 DUP3 ADD MSTORE PUSH20 0x1554D110C81D1C985B9CD9995C8819985A5B1959 PUSH1 0x62 SHL PUSH1 0x44 DUP3 ADD MSTORE PUSH1 0x64 ADD PUSH2 0x20E JUMP JUMPDEST DUP2 PUSH1 0x1 PUSH1 0x1 PUSH1 0xA0 SHL SUB AND PUSH32 0x237B94339B1DC667F5A951CF2EE33F00228F658A6AB811CC6AFA6CAAA4B80CFA DUP3 TIMESTAMP PUSH1 0x40 MLOAD PUSH2 0x865 SWAP3 SWAP2 SWAP1 SWAP2 DUP3 MSTORE PUSH1 0x20 DUP3 ADD MSTORE PUSH1 0x60 PUSH1 0x40 DUP3 ADD DUP2 SWAP1 MSTORE PUSH1 0xC SWAP1 DUP3 ADD MSTORE PUSH12 0x1E0D0C0C881C185E5B595B9D PUSH1 0xA2 SHL PUSH1 0x80 DUP3 ADD MSTORE PUSH1 0xA0 ADD SWAP1 JUMP JUMPDEST PUSH1 0x40 MLOAD DUP1 SWAP2 SUB SWAP1 LOG2 PUSH2 0x876 PUSH1 0x1 DUP1 SSTORE JUMP JUMPDEST POP POP JUMP JUMPDEST PUSH1 0x0 PUSH2 0x884 PUSH2 0x154B JUMP JUMPDEST PUSH2 0x88C PUSH2 0x1578 JUMP JUMPDEST PUSH1 0x1 PUSH1 0x1 PUSH1 0xA0 SHL SUB DUP4 AND PUSH2 0x8B2 JUMPI PUSH1 0x40 MLOAD PUSH3 0x461BCD PUSH1 0xE5 SHL DUP2 MSTORE PUSH1 0x4 ADD PUSH2 0x20E SWAP1 PUSH2 0x1700 JUMP JUMPDEST PUSH1 0x0 DUP3 GT PUSH2 0x8FB JUMPI PUSH1 0x40 MLOAD PUSH3 0x461BCD PUSH1 0xE5 SHL DUP2 MSTORE PUSH1 0x20 PUSH1 0x4 DUP3 ADD MSTORE PUSH1 0x16 PUSH1 0x24 DUP3 ADD MSTORE PUSH22 0x43616C6C20636F756E74206D757374206265203E203 PUSH1 0x54 SHL PUSH1 0x44 DUP3 ADD MSTORE PUSH1 0x64 ADD PUSH2 0x20E JUMP JUMPDEST PUSH1 0x0 DUP3 PUSH1 0x3 SLOAD PUSH2 0x90B SWAP2 SWAP1 PUSH2 0x16E9 JUMP JUMPDEST PUSH1 0x1 PUSH1 0x1 PUSH1 0xA0 SHL SUB DUP6 AND PUSH1 0x0 SWAP1 DUP2 MSTORE PUSH1 0x4 PUSH1 0x20 MSTORE PUSH1 0x40 SWAP1 KECCAK256 SLOAD SWAP1 SWAP2 POP DUP2 GT ISZERO PUSH2 0x946 JUMPI PUSH1 0x40 MLOAD PUSH3 0x461BCD PUSH1 0xE5 SHL DUP2 MSTORE PUSH1 0x4 ADD PUSH2 0x20E SWAP1 PUSH2 0x178F JUMP JUMPDEST PUSH1 0x1 PUSH1 0x1 PUSH1 0xA0 SHL SUB DUP5 AND PUSH1 0x0 SWAP1 DUP2 MSTORE PUSH1 0x4 PUSH1 0x20 MSTORE PUSH1 0x40 DUP2 KECCAK256 DUP1 SLOAD DUP4 SWAP3 SWAP1 PUSH2 0x96E SWAP1 DUP5 SWAP1 PUSH2 0x17BD JUMP JUMPDEST SWAP1 SWAP2 SSTORE POP POP PUSH1 0x1 PUSH1 0x1 PUSH1 0xA0 SHL SUB DUP5 AND PUSH1 0x0 SWAP1 DUP2 MSTORE PUSH1 0x6 PUSH1 0x20 MSTORE PUSH1 0x40 DUP2 KECCAK256 DUP1 SLOAD DUP6 SWAP3 SWAP1 PUSH2 0x99B SWAP1 DUP5 SWAP1 PUSH2 0x175A JUMP JUMPDEST SWAP3 POP POP DUP2 SWAP1 SSTORE POP DUP1 PUSH1 0x9 PUSH1 0x0 DUP3 DUP3 SLOAD PUSH2 0x9B4 SWAP2 SWAP1 PUSH2 0x175A JUMP JUMPDEST SWAP1 SWAP2 SSTORE POP POP PUSH1 0x2 SLOAD PUSH1 0x7 SLOAD PUSH1 0x40 MLOAD PUSH4 0xA9059CBB PUSH1 0xE0 SHL DUP2 MSTORE PUSH1 0x1 PUSH1 0x1 PUSH1 0xA0 SHL SUB SWAP2 DUP3 AND PUSH1 0x4 DUP3 ADD MSTORE PUSH1 0x24 DUP2 ADD DUP5 SWAP1 MSTORE SWAP2 AND SWAP1 PUSH4 0xA9059CBB SWAP1 PUSH1 0x44 ADD PUSH1 0x20 PUSH1 0x40 MLOAD DUP1 DUP4 SUB DUP2 PUSH1 0x0 DUP8 GAS CALL ISZERO DUP1 ISZERO PUSH2 0xA0E JUMPI RETURNDATASIZE PUSH1 0x0 DUP1 RETURNDATACOPY RETURNDATASIZE PUSH1 0x0 REVERT JUMPDEST POP POP POP POP PUSH1 0x40 MLOAD RETURNDATASIZE PUSH1 0x1F NOT PUSH1 0x1F DUP3 ADD AND DUP3 ADD DUP1 PUSH1 0x40 MSTORE POP DUP2 ADD SWAP1 PUSH2 0xA32 SWAP2 SWAP1 PUSH2 0x176D JUMP JUMPDEST PUSH2 0xA75 JUMPI PUSH1 0x40 MLOAD PUSH3 0x461BCD PUSH1 0xE5 SHL DUP2 MSTORE PUSH1 0x20 PUSH1 0x4 DUP3 ADD MSTORE PUSH1 0x14 PUSH1 0x24 DUP3 ADD MSTORE PUSH20 0x119B1BD8DAC81C185E5B595B9D0819985A5B1959 PUSH1 0x62 SHL PUSH1 0x44 DUP3 ADD MSTORE PUSH1 0x64 ADD PUSH2 0x20E JUMP JUMPDEST PUSH1 0x40 DUP1 MLOAD DUP3 DUP2 MSTORE PUSH1 0x20 DUP2 ADD DUP6 SWAP1 MSTORE TIMESTAMP DUP2 DUP4 ADD MSTORE SWAP1 MLOAD PUSH1 0x1 PUSH1 0x1 PUSH1 0xA0 SHL SUB DUP7 AND SWAP2 PUSH32 0xA6875992227AEE7A726C2EEAB2DD3B14FED5D4DBCA0AB659FE3F88D18E83AFE8 SWAP2 SWAP1 DUP2 SWAP1 SUB PUSH1 0x60 ADD SWAP1 LOG2 POP POP PUSH1 0x1 DUP1 DUP1 SSTORE PUSH2 0x676 JUMP JUMPDEST PUSH2 0xAD4 PUSH2 0x154B JUMP JUMPDEST PUSH2 0xADE PUSH1 0x0 PUSH2 0x15A2 JUMP JUMPDEST JUMP JUMPDEST PUSH2 0xAE8 PUSH2 0x154B JUMP JUMPDEST PUSH1 0x0 DUP2 GT PUSH2 0xB2B JUMPI PUSH1 0x40 MLOAD PUSH3 0x461BCD PUSH1 0xE5 SHL DUP2 MSTORE PUSH1 0x20 PUSH1 0x4 DUP3 ADD MSTORE PUSH1 0x10 PUSH1 0x24 DUP3 ADD MSTORE PUSH16 0x436F7374206D757374206265203E203 PUSH1 0x84 SHL PUSH1 0x44 DUP3 ADD MSTORE PUSH1 0x64 ADD PUSH2 0x20E JUMP JUMPDEST PUSH1 0x3 DUP2 SWAP1 SSTORE PUSH1 0x40 MLOAD DUP2 DUP2 MSTORE PUSH32 0x2F56169364380FE772080A81E5C6658D12178E83A22E1D65525D0709D55BD90E SWAP1 PUSH1 0x20 ADD PUSH1 0x40 MLOAD DUP1 SWAP2 SUB SWAP1 LOG1 POP JUMP JUMPDEST PUSH2 0xB6E PUSH2 0x1578 JUMP JUMPDEST PUSH1 0x1 PUSH1 0x1 PUSH1 0xA0 SHL SUB DUP7 AND PUSH2 0xB94 JUMPI PUSH1 0x40 MLOAD PUSH3 0x461BCD PUSH1 0xE5 SHL DUP2 MSTORE PUSH1 0x4 ADD PUSH2 0x20E SWAP1 PUSH2 0x1700 JUMP JUMPDEST PUSH1 0x0 DUP6 GT PUSH2 0xBB4 JUMPI PUSH1 0x40 MLOAD PUSH3 0x461BCD PUSH1 0xE5 SHL DUP2 MSTORE PUSH1 0x4 ADD PUSH2 0x20E SWAP1 PUSH2 0x172E JUMP JUMPDEST PUSH1 0x2 SLOAD PUSH1 0x40 MLOAD PUSH4 0xD505ACCF PUSH1 0xE0 SHL DUP2 MSTORE PUSH1 0x1 PUSH1 0x1 PUSH1 0xA0 SHL SUB DUP9 DUP2 AND PUSH1 0x4 DUP4 ADD MSTORE ADDRESS PUSH1 0x24 DUP4 ADD MSTORE PUSH1 0x44 DUP3 ADD DUP9 SWAP1 MSTORE PUSH1 0x64 DUP3 ADD DUP8 SWAP1 MSTORE PUSH1 0xFF DUP7 AND PUSH1 0x84 DUP4 ADD MSTORE PUSH1 0xA4 DUP3 ADD DUP6 SWAP1 MSTORE PUSH1 0xC4 DUP3 ADD DUP5 SWAP1 MSTORE SWAP1 SWAP2 AND SWAP1 PUSH4 0xD505ACCF SWAP1 PUSH1 0xE4 ADD PUSH1 0x0 PUSH1 0x40 MLOAD DUP1 DUP4 SUB DUP2 PUSH1 0x0 DUP8 DUP1 EXTCODESIZE ISZERO DUP1 ISZERO PUSH2 0xC26 JUMPI PUSH1 0x0 DUP1 REVERT JUMPDEST POP GAS CALL ISZERO DUP1 ISZERO PUSH2 0xC3A JUMPI RETURNDATASIZE PUSH1 0x0 DUP1 RETURNDATACOPY RETURNDATASIZE PUSH1 0x0 REVERT JUMPDEST POP POP POP POP PUSH1 0x1 PUSH1 0x1 PUSH1 0xA0 SHL SUB DUP7 AND PUSH1 0x0 SWAP1 DUP2 MSTORE PUSH1 0x4 PUSH1 0x20 MSTORE PUSH1 0x40 DUP2 KECCAK256 DUP1 SLOAD DUP8 SWAP3 SWAP1 PUSH2 0xC66 SWAP1 DUP5 SWAP1 PUSH2 0x175A JUMP JUMPDEST SWAP1 SWAP2 SSTORE POP POP PUSH1 0x1 PUSH1 0x1 PUSH1 0xA0 SHL SUB DUP7 AND PUSH1 0x0 SWAP1 DUP2 MSTORE PUSH1 0x5 PUSH1 0x20 MSTORE PUSH1 0x40 DUP2 KECCAK256 DUP1 SLOAD DUP8 SWAP3 SWAP1 PUSH2 0xC93 SWAP1 DUP5 SWAP1 PUSH2 0x175A JUMP JUMPDEST SWAP3 POP POP DUP2 SWAP1 SSTORE POP DUP5 PUSH1 0xA PUSH1 0x0 DUP3 DUP3 SLOAD PUSH2 0xCAC SWAP2 SWAP1 PUSH2 0x175A JUMP JUMPDEST SWAP1 SWAP2 SSTORE POP POP PUSH1 0x2 SLOAD PUSH1 0x40 MLOAD PUSH4 0x23B872DD PUSH1 0xE0 SHL DUP2 MSTORE PUSH1 0x1 PUSH1 0x1 PUSH1 0xA0 SHL SUB DUP9 DUP2 AND PUSH1 0x4 DUP4 ADD MSTORE ADDRESS PUSH1 0x24 DUP4 ADD MSTORE PUSH1 0x44 DUP3 ADD DUP9 SWAP1 MSTORE SWAP1 SWAP2 AND SWAP1 PUSH4 0x23B872DD SWAP1 PUSH1 0x64 ADD PUSH1 0x20 PUSH1 0x40 MLOAD DUP1 DUP4 SUB DUP2 PUSH1 0x0 DUP8 GAS CALL ISZERO DUP1 ISZERO PUSH2 0xD0A JUMPI RETURNDATASIZE PUSH1 0x0 DUP1 RETURNDATACOPY RETURNDATASIZE PUSH1 0x0 REVERT JUMPDEST POP POP POP POP PUSH1 0x40 MLOAD RETURNDATASIZE PUSH1 0x1F NOT PUSH1 0x1F DUP3 ADD AND DUP3 ADD DUP1 PUSH1 0x40 MSTORE POP DUP2 ADD SWAP1 PUSH2 0xD2E SWAP2 SWAP1 PUSH2 0x176D JUMP JUMPDEST PUSH2 0xD71 JUMPI PUSH1 0x40 MLOAD PUSH3 0x461BCD PUSH1 0xE5 SHL DUP2 MSTORE PUSH1 0x20 PUSH1 0x4 DUP3 ADD MSTORE PUSH1 0x14 PUSH1 0x24 DUP3 ADD MSTORE PUSH20 0x1554D110C81D1C985B9CD9995C8819985A5B1959 PUSH1 0x62 SHL PUSH1 0x44 DUP3 ADD MSTORE PUSH1 0x64 ADD PUSH2 0x20E JUMP JUMPDEST DUP6 PUSH1 0x1 PUSH1 0x1 PUSH1 0xA0 SHL SUB AND PUSH32 0x237B94339B1DC667F5A951CF2EE33F00228F658A6AB811CC6AFA6CAAA4B80CFA DUP7 TIMESTAMP PUSH1 0x40 MLOAD PUSH2 0xDD9 SWAP3 SWAP2 SWAP1 SWAP2 DUP3 MSTORE PUSH1 0x20 DUP3 ADD MSTORE PUSH1 0x60 PUSH1 0x40 DUP3 ADD DUP2 SWAP1 MSTORE PUSH1 0xC SWAP1 DUP3 ADD MSTORE PUSH12 0x1E0D0C0C881C185E5B595B9D PUSH1 0xA2 SHL PUSH1 0x80 DUP3 ADD MSTORE PUSH1 0xA0 ADD SWAP1 JUMP JUMPDEST PUSH1 0x40 MLOAD DUP1 SWAP2 SUB SWAP1 LOG2 PUSH1 0x40 DUP1 MLOAD DUP7 DUP2 MSTORE PUSH1 0x20 DUP2 ADD DUP7 SWAP1 MSTORE TIMESTAMP DUP2 DUP4 ADD MSTORE SWAP1 MLOAD PUSH1 0x1 PUSH1 0x1 PUSH1 0xA0 SHL SUB DUP9 AND SWAP2 PUSH32 0x2BC562B9D914B9675C534C695E367BF7C77CDDEA59EF5FEA4A541066B930E64C SWAP2 SWAP1 DUP2 SWAP1 SUB PUSH1 0x60 ADD SWAP1 LOG2 PUSH2 0xE35 PUSH1 0x1 DUP1 SSTORE JUMP JUMPDEST POP POP POP POP POP POP JUMP JUMPDEST PUSH2 0xE45 PUSH2 0x154B JUMP JUMPDEST PUSH1 0x1 PUSH1 0x1 PUSH1 0xA0 SHL SUB DUP2 AND PUSH2 0xE8C JUMPI PUSH1 0x40 MLOAD PUSH3 0x461BCD PUSH1 0xE5 SHL DUP2 MSTORE PUSH1 0x20 PUSH1 0x4 DUP3 ADD MSTORE PUSH1 0xE PUSH1 0x24 DUP3 ADD MSTORE PUSH14 0x125B9D985B1A59081DD85B1B195D PUSH1 0x92 SHL PUSH1 0x44 DUP3 ADD MSTORE PUSH1 0x64 ADD PUSH2 0x20E JUMP JUMPDEST PUSH1 0x7 DUP1 SLOAD PUSH1 0x1 PUSH1 0x1 PUSH1 0xA0 SHL SUB NOT AND PUSH1 0x1 PUSH1 0x1 PUSH1 0xA0 SHL SUB DUP4 AND SWAP1 DUP2 OR SWAP1 SWAP2 SSTORE PUSH1 0x40 MLOAD PUSH32 0xEE9C40B3FDB120FCB3BBA00C1E05F73606B01B33217F04F89F42E0BCAD09802 SWAP1 PUSH1 0x0 SWAP1 LOG2 POP JUMP JUMPDEST PUSH2 0xEDE PUSH2 0x154B JUMP JUMPDEST PUSH2 0xEE6 PUSH2 0x1578 JUMP JUMPDEST PUSH1 0x2 SLOAD PUSH1 0x40 MLOAD PUSH4 0x70A08231 PUSH1 0xE0 SHL DUP2 MSTORE ADDRESS PUSH1 0x4 DUP3 ADD MSTORE PUSH1 0x0 SWAP2 PUSH1 0x1 PUSH1 0x1 PUSH1 0xA0 SHL SUB AND SWAP1 PUSH4 0x70A08231 SWAP1 PUSH1 0x24 ADD PUSH1 0x20 PUSH1 0x40 MLOAD DUP1 DUP4 SUB DUP2 DUP7 GAS STATICCALL ISZERO DUP1 ISZERO PUSH2 0xF2F JUMPI RETURNDATASIZE PUSH1 0x0 DUP1 RETURNDATACOPY RETURNDATASIZE PUSH1 0x0 REVERT JUMPDEST POP POP POP POP PUSH1 0x40 MLOAD RETURNDATASIZE PUSH1 0x1F NOT PUSH1 0x1F DUP3 ADD AND DUP3 ADD DUP1 PUSH1 0x40 MSTORE POP DUP2 ADD SWAP1 PUSH2 0xF53 SWAP2 SWAP1 PUSH2 0x17D0 JUMP JUMPDEST SWAP1 POP PUSH1 0x0 DUP2 GT PUSH2 0xF9E JUMPI PUSH1 0x40 MLOAD PUSH3 0x461BCD PUSH1 0xE5 SHL DUP2 MSTORE PUSH1 0x20 PUSH1 0x4 DUP3 ADD MSTORE PUSH1 0x16 PUSH1 0x24 DUP3 ADD MSTORE PUSH22 0x4E6F2062616C616E636520746F207769746864726177 PUSH1 0x50 SHL PUSH1 0x44 DUP3 ADD MSTORE PUSH1 0x64 ADD PUSH2 0x20E JUMP JUMPDEST PUSH1 0x2 SLOAD PUSH1 0x1 PUSH1 0x1 PUSH1 0xA0 SHL SUB AND PUSH4 0xA9059CBB PUSH2 0xFC1 PUSH1 0x0 SLOAD PUSH1 0x1 PUSH1 0x1 PUSH1 0xA0 SHL SUB AND SWAP1 JUMP JUMPDEST PUSH1 0x40 MLOAD PUSH1 0x1 PUSH1 0x1 PUSH1 0xE0 SHL SUB NOT PUSH1 0xE0 DUP5 SWAP1 SHL AND DUP2 MSTORE PUSH1 0x1 PUSH1 0x1 PUSH1 0xA0 SHL SUB SWAP1 SWAP2 AND PUSH1 0x4 DUP3 ADD MSTORE PUSH1 0x24 DUP2 ADD DUP5 SWAP1 MSTORE PUSH1 0x44 ADD PUSH1 0x20 PUSH1 0x40 MLOAD DUP1 DUP4 SUB DUP2 PUSH1 0x0 DUP8 GAS CALL ISZERO DUP1 ISZERO PUSH2 0x100E JUMPI RETURNDATASIZE PUSH1 0x0 DUP1 RETURNDATACOPY RETURNDATASIZE PUSH1 0x0 REVERT JUMPDEST POP POP POP POP PUSH1 0x40 MLOAD RETURNDATASIZE PUSH1 0x1F NOT PUSH1 0x1F DUP3 ADD AND DUP3 ADD DUP1 PUSH1 0x40 MSTORE POP DUP2 ADD SWAP1 PUSH2 0x1032 SWAP2 SWAP1 PUSH2 0x176D JUMP JUMPDEST PUSH2 0x104E JUMPI PUSH1 0x40 MLOAD PUSH3 0x461BCD PUSH1 0xE5 SHL DUP2 MSTORE PUSH1 0x4 ADD PUSH2 0x20E SWAP1 PUSH2 0x17E9 JUMP JUMPDEST PUSH1 0x0 SLOAD PUSH1 0x40 DUP1 MLOAD DUP4 DUP2 MSTORE TIMESTAMP PUSH1 0x20 DUP3 ADD MSTORE PUSH1 0x1 PUSH1 0x1 PUSH1 0xA0 SHL SUB SWAP1 SWAP3 AND SWAP2 PUSH32 0x198C9A3869A23D7C0E404B2F9ADB78E7F3C699F6DF9BFC4FFA588C64036D217E SWAP2 ADD PUSH1 0x40 MLOAD DUP1 SWAP2 SUB SWAP1 LOG2 POP PUSH2 0xADE PUSH1 0x1 DUP1 SSTORE JUMP JUMPDEST PUSH2 0x10A7 PUSH2 0x154B JUMP JUMPDEST PUSH2 0x10AF PUSH2 0x1578 JUMP JUMPDEST PUSH1 0x0 DUP2 GT PUSH2 0x10CF JUMPI PUSH1 0x40 MLOAD PUSH3 0x461BCD PUSH1 0xE5 SHL DUP2 MSTORE PUSH1 0x4 ADD PUSH2 0x20E SWAP1 PUSH2 0x172E JUMP JUMPDEST PUSH1 0x2 SLOAD PUSH1 0x40 MLOAD PUSH4 0x70A08231 PUSH1 0xE0 SHL DUP2 MSTORE ADDRESS PUSH1 0x4 DUP3 ADD MSTORE DUP3 SWAP2 PUSH1 0x1 PUSH1 0x1 PUSH1 0xA0 SHL SUB AND SWAP1 PUSH4 0x70A08231 SWAP1 PUSH1 0x24 ADD PUSH1 0x20 PUSH1 0x40 MLOAD DUP1 DUP4 SUB DUP2 DUP7 GAS STATICCALL ISZERO DUP1 ISZERO PUSH2 0x1117 JUMPI RETURNDATASIZE PUSH1 0x0 DUP1 RETURNDATACOPY RETURNDATASIZE PUSH1 0x0 REVERT JUMPDEST POP POP POP POP PUSH1 0x40 MLOAD RETURNDATASIZE PUSH1 0x1F NOT PUSH1 0x1F DUP3 ADD AND DUP3 ADD DUP1 PUSH1 0x40 MSTORE POP DUP2 ADD SWAP1 PUSH2 0x113B SWAP2 SWAP1 PUSH2 0x17D0 JUMP JUMPDEST LT ISZERO PUSH2 0x1189 JUMPI PUSH1 0x40 MLOAD PUSH3 0x461BCD PUSH1 0xE5 SHL DUP2 MSTORE PUSH1 0x20 PUSH1 0x4 DUP3 ADD MSTORE PUSH1 0x1D PUSH1 0x24 DUP3 ADD MSTORE PUSH32 0x496E73756666696369656E7420636F6E74726163742062616C616E6365000000 PUSH1 0x44 DUP3 ADD MSTORE PUSH1 0x64 ADD PUSH2 0x20E JUMP JUMPDEST PUSH1 0x2 SLOAD PUSH1 0x40 MLOAD PUSH4 0xA9059CBB PUSH1 0xE0 SHL DUP2 MSTORE CALLER PUSH1 0x4 DUP3 ADD MSTORE PUSH1 0x24 DUP2 ADD DUP4 SWAP1 MSTORE PUSH1 0x1 PUSH1 0x1 PUSH1 0xA0 SHL SUB SWAP1 SWAP2 AND SWAP1 PUSH4 0xA9059CBB SWAP1 PUSH1 0x44 ADD PUSH1 0x20 PUSH1 0x40 MLOAD DUP1 DUP4 SUB DUP2 PUSH1 0x0 DUP8 GAS CALL ISZERO DUP1 ISZERO PUSH2 0x11DA JUMPI RETURNDATASIZE PUSH1 0x0 DUP1 RETURNDATACOPY RETURNDATASIZE PUSH1 0x0 REVERT JUMPDEST POP POP POP POP PUSH1 0x40 MLOAD RETURNDATASIZE PUSH1 0x1F NOT PUSH1 0x1F DUP3 ADD AND DUP3 ADD DUP1 PUSH1 0x40 MSTORE POP DUP2 ADD SWAP1 PUSH2 0x11FE SWAP2 SWAP1 PUSH2 0x176D JUMP JUMPDEST PUSH2 0x121A JUMPI PUSH1 0x40 MLOAD PUSH3 0x461BCD PUSH1 0xE5 SHL DUP2 MSTORE PUSH1 0x4 ADD PUSH2 0x20E SWAP1 PUSH2 0x17E9 JUMP JUMPDEST PUSH1 0x40 DUP1 MLOAD DUP3 DUP2 MSTORE TIMESTAMP PUSH1 0x20 DUP3 ADD MSTORE CALLER SWAP2 PUSH32 0x198C9A3869A23D7C0E404B2F9ADB78E7F3C699F6DF9BFC4FFA588C64036D217E SWAP2 ADD PUSH1 0x40 MLOAD DUP1 SWAP2 SUB SWAP1 LOG2 PUSH2 0x125D PUSH1 0x1 DUP1 SSTORE JUMP JUMPDEST POP JUMP JUMPDEST PUSH1 0x0 PUSH2 0x126A PUSH2 0x154B JUMP JUMPDEST PUSH2 0x1272 PUSH2 0x1578 JUMP JUMPDEST PUSH1 0x1 PUSH1 0x1 PUSH1 0xA0 SHL SUB DUP4 AND PUSH2 0x1298 JUMPI PUSH1 0x40 MLOAD PUSH3 0x461BCD PUSH1 0xE5 SHL DUP2 MSTORE PUSH1 0x4 ADD PUSH2 0x20E SWAP1 PUSH2 0x1700 JUMP JUMPDEST PUSH1 0x0 DUP3 GT PUSH2 0x12B8 JUMPI PUSH1 0x40 MLOAD PUSH3 0x461BCD PUSH1 0xE5 SHL DUP2 MSTORE PUSH1 0x4 ADD PUSH2 0x20E SWAP1 PUSH2 0x172E JUMP JUMPDEST PUSH1 0x1 PUSH1 0x1 PUSH1 0xA0 SHL SUB DUP4 AND PUSH1 0x0 SWAP1 DUP2 MSTORE PUSH1 0x4 PUSH1 0x20 MSTORE PUSH1 0x40 SWAP1 KECCAK256 SLOAD DUP3 GT ISZERO PUSH2 0x12F0 JUMPI PUSH1 0x40 MLOAD PUSH3 0x461BCD PUSH1 0xE5 SHL DUP2 MSTORE PUSH1 0x4 ADD PUSH2 0x20E SWAP1 PUSH2 0x178F JUMP JUMPDEST PUSH1 0x1 PUSH1 0x1 PUSH1 0xA0 SHL SUB DUP4 AND PUSH1 0x0 SWAP1 DUP2 MSTORE PUSH1 0x4 PUSH1 0x20 MSTORE PUSH1 0x40 DUP2 KECCAK256 DUP1 SLOAD DUP5 SWAP3 SWAP1 PUSH2 0x1318 SWAP1 DUP5 SWAP1 PUSH2 0x17BD JUMP JUMPDEST SWAP3 POP POP DUP2 SWAP1 SSTORE POP DUP2 PUSH1 0xA PUSH1 0x0 DUP3 DUP3 SLOAD PUSH2 0x1331 SWAP2 SWAP1 PUSH2 0x17BD JUMP JUMPDEST SWAP1 SWAP2 SSTORE POP POP PUSH1 0x2 SLOAD PUSH1 0x7 SLOAD PUSH1 0x40 MLOAD PUSH4 0xA9059CBB PUSH1 0xE0 SHL DUP2 MSTORE PUSH1 0x1 PUSH1 0x1 PUSH1 0xA0 SHL SUB SWAP2 DUP3 AND PUSH1 0x4 DUP3 ADD MSTORE PUSH1 0x24 DUP2 ADD DUP6 SWAP1 MSTORE SWAP2 AND SWAP1 PUSH4 0xA9059CBB SWAP1 PUSH1 0x44 ADD PUSH1 0x20 PUSH1 0x40 MLOAD DUP1 DUP4 SUB DUP2 PUSH1 0x0 DUP8 GAS CALL ISZERO DUP1 ISZERO PUSH2 0x138B JUMPI RETURNDATASIZE PUSH1 0x0 DUP1 RETURNDATACOPY RETURNDATASIZE PUSH1 0x0 REVERT JUMPDEST POP POP POP POP PUSH1 0x40 MLOAD RETURNDATASIZE PUSH1 0x1F NOT PUSH1 0x1F DUP3 ADD AND DUP3 ADD DUP1 PUSH1 0x40 MSTORE POP DUP2 ADD SWAP1 PUSH2 0x13AF SWAP2 SWAP1 PUSH2 0x176D JUMP JUMPDEST PUSH2 0x13CB JUMPI PUSH1 0x40 MLOAD PUSH3 0x461BCD PUSH1 0xE5 SHL DUP2 MSTORE PUSH1 0x4 ADD PUSH2 0x20E SWAP1 PUSH2 0x17E9 JUMP JUMPDEST PUSH1 0x40 DUP1 MLOAD DUP4 DUP2 MSTORE PUSH1 0x0 PUSH1 0x20 DUP3 ADD MSTORE TIMESTAMP DUP2 DUP4 ADD MSTORE SWAP1 MLOAD PUSH1 0x1 PUSH1 0x1 PUSH1 0xA0 SHL SUB DUP6 AND SWAP2 PUSH32 0xA6875992227AEE7A726C2EEAB2DD3B14FED5D4DBCA0AB659FE3F88D18E83AFE8 SWAP2 SWAP1 DUP2 SWAP1 SUB PUSH1 0x60 ADD SWAP1 LOG2 POP PUSH1 0x1 PUSH2 0x676 PUSH1 0x1 DUP1 SSTORE JUMP JUMPDEST PUSH2 0x142A PUSH2 0x154B JUMP JUMPDEST PUSH1 0x0 DUP2 SGT ISZERO PUSH2 0x147F JUMPI PUSH1 0x1 PUSH1 0x1 PUSH1 0xA0 SHL SUB DUP3 AND PUSH1 0x0 SWAP1 DUP2 MSTORE PUSH1 0x4 PUSH1 0x20 MSTORE PUSH1 0x40 DUP2 KECCAK256 DUP1 SLOAD DUP4 SWAP3 SWAP1 PUSH2 0x145B SWAP1 DUP5 SWAP1 PUSH2 0x175A JUMP JUMPDEST SWAP3 POP POP DUP2 SWAP1 SSTORE POP DUP1 PUSH1 0xA PUSH1 0x0 DUP3 DUP3 SLOAD PUSH2 0x1474 SWAP2 SWAP1 PUSH2 0x175A JUMP JUMPDEST SWAP1 SWAP2 SSTORE POP PUSH2 0x876 SWAP1 POP JUMP JUMPDEST PUSH1 0x0 PUSH2 0x148A DUP3 PUSH2 0x1812 JUMP JUMPDEST PUSH1 0x1 PUSH1 0x1 PUSH1 0xA0 SHL SUB DUP5 AND PUSH1 0x0 SWAP1 DUP2 MSTORE PUSH1 0x4 PUSH1 0x20 MSTORE PUSH1 0x40 SWAP1 KECCAK256 SLOAD SWAP1 SWAP2 POP DUP2 GT ISZERO PUSH2 0x14C5 JUMPI PUSH1 0x40 MLOAD PUSH3 0x461BCD PUSH1 0xE5 SHL DUP2 MSTORE PUSH1 0x4 ADD PUSH2 0x20E SWAP1 PUSH2 0x178F JUMP JUMPDEST PUSH1 0x1 PUSH1 0x1 PUSH1 0xA0 SHL SUB DUP4 AND PUSH1 0x0 SWAP1 DUP2 MSTORE PUSH1 0x4 PUSH1 0x20 MSTORE PUSH1 0x40 DUP2 KECCAK256 DUP1 SLOAD DUP4 SWAP3 SWAP1 PUSH2 0x14ED SWAP1 DUP5 SWAP1 PUSH2 0x17BD JUMP JUMPDEST SWAP3 POP POP DUP2 SWAP1 SSTORE POP DUP1 PUSH1 0xA PUSH1 0x0 DUP3 DUP3 SLOAD PUSH2 0x1506 SWAP2 SWAP1 PUSH2 0x17BD JUMP JUMPDEST SWAP1 SWAP2 SSTORE POP POP POP POP POP JUMP JUMPDEST PUSH2 0x1518 PUSH2 0x154B JUMP JUMPDEST PUSH1 0x1 PUSH1 0x1 PUSH1 0xA0 SHL SUB DUP2 AND PUSH2 0x1542 JUMPI PUSH1 0x40 MLOAD PUSH4 0x1E4FBDF7 PUSH1 0xE0 SHL DUP2 MSTORE PUSH1 0x0 PUSH1 0x4 DUP3 ADD MSTORE PUSH1 0x24 ADD PUSH2 0x20E JUMP JUMPDEST PUSH2 0x125D DUP2 PUSH2 0x15A2 JUMP JUMPDEST PUSH1 0x0 SLOAD PUSH1 0x1 PUSH1 0x1 PUSH1 0xA0 SHL SUB AND CALLER EQ PUSH2 0xADE JUMPI PUSH1 0x40 MLOAD PUSH4 0x118CDAA7 PUSH1 0xE0 SHL DUP2 MSTORE CALLER PUSH1 0x4 DUP3 ADD MSTORE PUSH1 0x24 ADD PUSH2 0x20E JUMP JUMPDEST PUSH1 0x2 PUSH1 0x1 SLOAD SUB PUSH2 0x159B JUMPI PUSH1 0x40 MLOAD PUSH4 0x3EE5AEB5 PUSH1 0xE0 SHL DUP2 MSTORE PUSH1 0x4 ADD PUSH1 0x40 MLOAD DUP1 SWAP2 SUB SWAP1 REVERT JUMPDEST PUSH1 0x2 PUSH1 0x1 SSTORE JUMP JUMPDEST PUSH1 0x0 DUP1 SLOAD PUSH1 0x1 PUSH1 0x1 PUSH1 0xA0 SHL SUB DUP4 DUP2 AND PUSH1 0x1 PUSH1 0x1 PUSH1 0xA0 SHL SUB NOT DUP4 AND DUP2 OR DUP5 SSTORE PUSH1 0x40 MLOAD SWAP2 SWAP1 SWAP3 AND SWAP3 DUP4 SWAP2 PUSH32 0x8BE0079C531659141344CD1FD0A4F28419497F9722A3DAAFE3B4186F6B6457E0 SWAP2 SWAP1 LOG3 POP POP JUMP JUMPDEST DUP1 CALLDATALOAD PUSH1 0x1 PUSH1 0x1 PUSH1 0xA0 SHL SUB DUP2 AND DUP2 EQ PUSH2 0x1609 JUMPI PUSH1 0x0 DUP1 REVERT JUMPDEST SWAP2 SWAP1 POP JUMP JUMPDEST PUSH1 0x0 PUSH1 0x20 DUP3 DUP5 SUB SLT ISZERO PUSH2 0x1620 JUMPI PUSH1 0x0 DUP1 REVERT JUMPDEST PUSH2 0x1629 DUP3 PUSH2 0x15F2 JUMP JUMPDEST SWAP4 SWAP3 POP POP POP JUMP JUMPDEST PUSH1 0x0 PUSH1 0x20 DUP3 DUP5 SUB SLT ISZERO PUSH2 0x1642 JUMPI PUSH1 0x0 DUP1 REVERT JUMPDEST POP CALLDATALOAD SWAP2 SWAP1 POP JUMP JUMPDEST PUSH1 0x0 DUP1 PUSH1 0x40 DUP4 DUP6 SUB SLT ISZERO PUSH2 0x165C JUMPI PUSH1 0x0 DUP1 REVERT JUMPDEST PUSH2 0x1665 DUP4 PUSH2 0x15F2 JUMP JUMPDEST SWAP5 PUSH1 0x20 SWAP4 SWAP1 SWAP4 ADD CALLDATALOAD SWAP4 POP POP POP JUMP JUMPDEST PUSH1 0x0 DUP1 PUSH1 0x0 DUP1 PUSH1 0x0 DUP1 PUSH1 0xC0 DUP8 DUP10 SUB SLT ISZERO PUSH2 0x168C JUMPI PUSH1 0x0 DUP1 REVERT JUMPDEST PUSH2 0x1695 DUP8 PUSH2 0x15F2 JUMP JUMPDEST SWAP6 POP PUSH1 0x20 DUP8 ADD CALLDATALOAD SWAP5 POP PUSH1 0x40 DUP8 ADD CALLDATALOAD SWAP4 POP PUSH1 0x60 DUP8 ADD CALLDATALOAD PUSH1 0xFF DUP2 AND DUP2 EQ PUSH2 0x16B9 JUMPI PUSH1 0x0 DUP1 REVERT JUMPDEST SWAP6 SWAP9 SWAP5 SWAP8 POP SWAP3 SWAP6 PUSH1 0x80 DUP2 ADD CALLDATALOAD SWAP5 PUSH1 0xA0 SWAP1 SWAP2 ADD CALLDATALOAD SWAP4 POP SWAP2 POP POP JUMP JUMPDEST PUSH4 0x4E487B71 PUSH1 0xE0 SHL PUSH1 0x0 MSTORE PUSH1 0x11 PUSH1 0x4 MSTORE PUSH1 0x24 PUSH1 0x0 REVERT JUMPDEST DUP1 DUP3 MUL DUP2 ISZERO DUP3 DUP3 DIV DUP5 EQ OR PUSH2 0x676 JUMPI PUSH2 0x676 PUSH2 0x16D3 JUMP JUMPDEST PUSH1 0x20 DUP1 DUP3 MSTORE PUSH1 0x14 SWAP1 DUP3 ADD MSTORE PUSH20 0x496E76616C696420757365722061646472657373 PUSH1 0x60 SHL PUSH1 0x40 DUP3 ADD MSTORE PUSH1 0x60 ADD SWAP1 JUMP JUMPDEST PUSH1 0x20 DUP1 DUP3 MSTORE PUSH1 0x12 SWAP1 DUP3 ADD MSTORE PUSH18 0x416D6F756E74206D757374206265203E203 PUSH1 0x74 SHL PUSH1 0x40 DUP3 ADD MSTORE PUSH1 0x60 ADD SWAP1 JUMP JUMPDEST DUP1 DUP3 ADD DUP1 DUP3 GT ISZERO PUSH2 0x676 JUMPI PUSH2 0x676 PUSH2 0x16D3 JUMP JUMPDEST PUSH1 0x0 PUSH1 0x20 DUP3 DUP5 SUB SLT ISZERO PUSH2 0x177F JUMPI PUSH1 0x0 DUP1 REVERT JUMPDEST DUP2 MLOAD DUP1 ISZERO ISZERO DUP2 EQ PUSH2 0x1629 JUMPI PUSH1 0x0 DUP1 REVERT JUMPDEST PUSH1 0x20 DUP1 DUP3 MSTORE PUSH1 0x14 SWAP1 DUP3 ADD MSTORE PUSH20 0x496E73756666696369656E742062616C616E6365 PUSH1 0x60 SHL PUSH1 0x40 DUP3 ADD MSTORE PUSH1 0x60 ADD SWAP1 JUMP JUMPDEST DUP2 DUP2 SUB DUP2 DUP2 GT ISZERO PUSH2 0x676 JUMPI PUSH2 0x676 PUSH2 0x16D3 JUMP JUMPDEST PUSH1 0x0 PUSH1 0x20 DUP3 DUP5 SUB SLT ISZERO PUSH2 0x17E2 JUMPI PUSH1 0x0 DUP1 REVERT JUMPDEST POP MLOAD SWAP2 SWAP1 POP JUMP JUMPDEST PUSH1 0x20 DUP1 DUP3 MSTORE PUSH1 0xF SWAP1 DUP3 ADD MSTORE PUSH15 0x151C985B9CD9995C8819985A5B1959 PUSH1 0x8A SHL PUSH1 0x40 DUP3 ADD MSTORE PUSH1 0x60 ADD SWAP1 JUMP JUMPDEST PUSH1 0x0 PUSH1 0x1 PUSH1 0xFF SHL DUP3 ADD PUSH2 0x1827 JUMPI PUSH2 0x1827 PUSH2 0x16D3 JUMP JUMPDEST POP PUSH1 0x0 SUB SWAP1 JUMP INVALID LOG2 PUSH5 0x6970667358 0x22 SLT KECCAK256 CALLDATALOAD 0x5E 0xB7 PUSH16 0xE1A3253EF0993B67EA4BBEDBBD27EBCC 0xDF BLOCKHASH CODECOPY 0xAE STATICCALL SWAP15 BALANCE 0xCF SWAP16 GAS SWAP12 0xAC PUSH5 0x736F6C6343 STOP ADDMOD EQ STOP CALLER "},"methodIdentifiers":{"adjustBalance(address,int256)":"ecbc8fa7","calculateCost(uint256)":"4af18f4f","deductBalance(address,uint256)":"e2fbae48","deductFlockCost(address,uint256)":"700f39cf","emergencyWithdraw()":"db2e21bc","flockCostPerCall()":"ac0c62b7","flockWallet()":"64c73530","getBalance(address)":"f8b2cb4f","getCallCount(address)":"6335ee3e","getTotalFlockPayments()":"be6771f6","getTotalPaid(address)":"d881db19","getTreasuryBalance()":"9b5655dc","owner()":"8da5cb5b","receivePayment(address,uint256)":"5259b9ab","receivePaymentWithPermit(address,uint256,uint256,uint8,bytes32,bytes32)":"a3e1484a","renounceOwnership()":"715018a6","setFlockCost(uint256)":"92e69cf9","setFlockWallet(address)":"d7506dbb","setTreasuryAdmin(address)":"0f66ef02","totalFlockPayments()":"d319f485","totalTreasuryBalance()":"ec4a59d9","transferOwnership(address)":"f2fde38b","treasuryAdmin()":"cfec010c","usdc()":"3e413bee","userBalances(address)":"26224c64","userCallCount(address)":"dbcaf5bb","userTotalPaid(address)":"794f75ba","withdrawUSDC(uint256)":"db81f99b"}}}}}